:020000040800F2
:10000000C82F002019030008DF48000879460008BF
:10001000DD48000863040008516600082B0300084F
:100020000000000000000000000000004157000830
:100030006504000800000000A94E000843570008AE
:1000400035030008350300083503000835030008B0
:1000500035030008350300083503000835030008A0
:100060003503000835030008350300083503000890
:100070003503000835030008350300083503000880
:100080003503000835030008350300083503000870
:100090003503000835030008350300083503000860
:1000A0003503000835030008350300083503000850
:1000B0003503000835030008350300083503000840
:1000C0003503000835030008350300083503000830
:1000D0000000000035030008350300083503000860
:1000E0003503000835030008350300083503000810
:1000F0003503000835030008350300083503000800
:1001000035030008350300083503000835030008EF
:1001100035030008350300083503000835030008DF
:1001200035030008350300083503000835030008CF
:1001300035030008350300083503000835030008BF
:1001400035030008350300083503000835030008AF
:10015000350300083503000835030008350300089F
:100160003503000835030008655F00083503000803
:10017000350300083503000835030008350300087F
:10018000350300083503000835030008350300086F
:10019000350300083503000835030008350300085F
:1001A000350300083503000835030008350300084F
:1001B000350300083503000835030008350300083F
:1001C000350300083503000835030008350300082F
:1001D000350300083503000800000000350300085F
:1001E000350300083503000800000000000000008F
:1001F000350300080000000000000000350300087F
:10020000350300083503000835030008000000002E
:10021000000000003503000800000000350300085E
:1002200035030008350300083503000835030008CE
:1002300035030008350300083503000835030008BE
:1002400035030008350300083503000800F002F804
:1002500000F052F814A696E8000CB244B344DA4514
:1002600001D100F049F8BAE80F000FA696E8300077
:10027000A5EB040504EB0607AAEB0704A7F10107A9
:100280004FEA15154FEA3414A4F10104AC4201D32E
:1002900000F032F813F0010F18BFFB1A43F001030E
:1002A00000F001F8DBE71847AC8A0000CC8A0000B8
:1002B000103A24BF78C878C1FAD8520724BF30C892
:1002C00030C144BF04680C607047000070470000F4
:1002D0000023002400250026103A28BF78C1FBD84F
:1002E000520728BF30C148BF0B6070471FB508F0E8
:1002F00017FD1FBD10B510BD00F079F81146FFF7CE
:10030000F5FF08F061FC00F097F803B4FFF7F2FF87
:1003100003BC00F09FF800000A4880470A480047E5
:10032000FEE7FEE7FEE7FEE7FEE7FEE7FEE7FEE7A5
:10033000FEE7FEE7FEE7000004480549054A064BD4
:1003400070470000055800084D020008C80D002045
:10035000C82F0020C80F0020C80F002010B5431C74
:1003600002E010F8011B71B18107FAD14FF00132A0
:1003700002C88C1A8C4314EAC211F9D0C01A0A06BA
:1003800003D0C01E10BDC01A10BD0A0401D0801ECB
:1003900010BD0902FCD0401E10BD4FF0000200B598
:1003A000134694469646203922BFA0E80C50A0E898
:1003B0000C50B1F12001BFF4F7AF090728BFA0E846
:1003C0000C5048BF0CC05DF804EB890028BF40F812
:1003D000042B08BF704748BF20F8022B11F0804F54
:1003E00018BF00F8012B704770477047704775467B
:1003F00000F02CF8AE4605006946534620F0070091
:10040000854618B020B5FFF797FFBDE820404FF0B4
:1004100000064FF000074FF000084FF0000BAC460D
:10042000ACE8C009ACE8C009ACE8C009ACE8C00958
:1004300021F007018D46704710B50446AFF30080E8
:100440002046BDE81040FFF760BF0000004870473D
:100450009000002001491820ABBEFEE726000200F4
:100460007047FEE7704772B6FEE70000B0B504467D
:1004700000F0C4F805469C48611C007818BF04448D
:1004800000F0BCF8401BA042FAD3B0BD2DE9F84FF4
:100490004E4A4FF0000E4FF0010A4FF000094FF0A6
:1004A000000B02EA9022009200220C6834FA02F556
:1004B00008BFBDE8F88F0AFA02F514EA05087CD0F7
:1004C0004E6846F01003122B14D10EF01C030F24BB
:1004D00004FA03F66FF0030404EA52040444276AA2
:1004E00027EA06060F6907F00F0707FA03F33343FD
:1004F00023624E68032406F00303076804FA09F434
:1005000003FA09F3A7436FEA040C3B43122E03607E
:1005100014D80AFA06F313F0061F0DD08368CC68CE
:1005200003EA0C0304FA09F42343836033094468A3
:100530009340AC4323434360032E3ED0C3688C6892
:1005400003EA0C0304FA09F42343C360F30034D52F
:1005500022F003051E4F0BF018030F243D449C406E
:100560002E6E26EA0404009E06FA03F323432B664C
:100570003B684D6843EA0804EE0258BF23EA0804CA
:100580003C60AE027B6843EA080458BF23EA0804D3
:100590007C60AE03D7F8843043EA080458BF23EAEE
:1005A0000804C7F88440ED03D7F8803043EA080414
:1005B00058BF23EA0804C7F880400EF1040E09F181
:1005C00002090BF1080B01326FE700BF7F7F2F009C
:1005D000002002440069084018BF012070474269AA
:1005E00002EA0103914341EA034181617047182304
:1005F000002A08BF2823C150704700000A4800683D
:10060000704700BF0348016841F00101016000200C
:10061000704700BF000403403348034900780A686C
:1006200010440860704700BFC409002080B5032053
:1006300000F098F802F076FD0A490B4A096801F0CB
:100640000F01515CC8402A490860042003F0C8FF2C
:100650000F2000F00BF808B1012080BD00F04AF82F
:10066000002080BD200C02443A8D000870B51E4E5B
:1006700004463078C8B11D49096849070AD403F017
:10068000E5FF02281DD0012823D050BB30784FF45D
:10069000FA5101E04FF47A71B1FBF0F014490968A6
:1006A000B1FBF0F003F0C2FF08B1012507E04FF005
:1006B000FF3021460022002500F02EF87460284605
:1006C00070BD30784FF47A71B1FBF0F04FF4004117
:1006D000E6E730784FF47A71B1FBF0F04FF4FA416D
:1006E000DEE70020DEE700BF0000002010E000E0B1
:1006F0003C00002070470000002809D400F01F01D2
:100700000122C0F34A1002FA01F1024A42F8201015
:10071000704700BF00E100E0F0B5184B4FF0FF3626
:100720001C68C4F30224E51E84F0070438BF0025CA
:1007300006FA05F7BA43042C28BF042406FA04F489
:10074000A14300F00F04A940043C1143044A234490
:1007500009010244002848BF03F10C021170F0BDEA
:1007600000E400E005494FF6FF030A681A4060F311
:100770000A22034810430860704700BF0CED00E0F8
:100780000000FA0501684A6D42F001024A65012243
:10079000C0F8D422002280F8CC22486D40F002003C
:1007A0004865002070477047B0B501F0070501EBC0
:1007B000810405EB850500EBC40400EBC500143093
:1007C000090658BF04F5AA7012B10121836001E047
:1007D000C380002101730020B0BD0000F8B5574A66
:1007E000044611F00F0000EB40001268D26902EBE2
:1007F000800000F1640608BF161D356861B1A86E5F
:100800006A6C40B300203AB3E864A8662046002230
:10081000002300F079F91DE0307A01281AD1204632
:10082000002100220023AF6B00F02AF9FB69E86C7D
:1008300098421BD9296CCA18C11A99422A6438BF38
:100840000B46397DC01AE864204601B0BDE8F0408F
:1008500000F05AB9F8BD1046A864022028630020B1
:100860006865706840F008007060F8BDA86E0128E7
:1008700008D1397D204600220023002600F044F9EB
:10088000AE66F8BD0220E96D286300206865686CDB
:10089000A864706840F00800706011B105F1300084
:1008A000884704203072F8BDF8B5244A044601F0A8
:1008B0000F0000EB40001268D26902EB80067568F9
:1008C00061B1204600F0ABF8A86402200021286343
:1008D000B068696540F00800B0601BE0307B02281A
:1008E00018D120460021AF6B00F099F80346D5E9F6
:1008F000110119448142A9640DD92720E96D686569
:10090000B06840F00800B06021B105F13000BDE8EA
:10091000F8400847F8BD0CD0F869834209D1286C2B
:10092000397DC21820462A6401B0BDE8F04000F0CD
:10093000A7B8B06840F44070CEE700BF3006002092
:1009400001F0070249B202EB8202002900EBC20368
:1009500003F5AA7248BF03F114020068114605F0BE
:1009600001BE10B5044601F0070049B204F038FAA0
:10097000C3BF002281F8552101F5AA710122DCBF15
:100980004A751431087094F89402012804BF0220BB
:1009900010BD04F01DF905F0EBFA04F0A9B8B0B5EC
:1009A0000446007901F00F02824201D901251DE0C1
:1009B00001F0070049B204F013FAC3BF002281F826
:1009C000552101F5AA710122DCBF4A751431087066
:1009D000002594F894028D70012801D1022505E0CC
:1009E00004F0F6F805F03CFB84F894522846B0BDBC
:1009F00010B504F0CDF904BF022010BD01204AB2A9
:100A000084F894022068B2F1FF3F02DD05F0DAFDC0
:100A100003E001F0070105F0D7FD04F069B801F02B
:100A2000070101EB810100EBC100D0F870017047B4
:100A3000B0B5044601F0070049B26FF3DF2204F0BD
:100A4000CFF9C3BF002581F8555101F5AA710125E1
:100A5000DCBF4D751431CB700A610870022B04BFE6
:100A60000020087194F89402012804BF0220B0BD50
:100A700004F0AEF805F048F9002084F89402B0BD07
:100A8000B0B501F00701002501EB810400EBC404BF
:100A9000006804F5B47784F8541104F5AA7184F859
:100AA00055512CC705F02CFB0020B0BD10B50446F5
:100AB00001F007002279904284BF012010BD4AB2A4
:100AC000B2F1FF3F09DD01EB8101002204EBC1011E
:100AD00081F8552101F5AA7106E000EB80010122A1
:100AE00004EBC1014A75143194F894220870012076
:100AF0008870012A04BF022010BD84F89402206887
:100B000005F0E4FA03F0F4BFB0B501F007040025E6
:100B100004EB840100EBC101006801F8144F0124CB
:100B200001F1140781F824400B624C702CC705F0CA
:100B3000E7FA0020B0BD00002DE9F84F0446006838
:100B400005F044FD01041BD4410500F1128341046A
:100B500000F11E83810400F11F83C10400F1208392
:100B6000010500F13C83010600F14883810500F195
:100B70005383C00540F1318320684FF6FF6229E3BB
:100B800004F52770D74D00902168486C000440F1AF
:100B900024834A6C12F00F0B3BD051F82BA05FEA74
:100BA0000A4040F1088151F82B00284040F08000B5
:100BB00041F82B000BEB8B0004EBC00898F86001A8
:100BC00008F5AA76002800F08B8098F857010228D3
:100BD00040F08F8008F5B67930785FEA4A4100F13D
:100BE000AE8004F03FF90746D9F800000021C01B91
:100BF00038BF0846C9F8000001D804F0A7F85FEA3A
:100C00004A6003D43078216804F013F8002F7CD1B7
:100C1000B9E00868D2061FD4284040F400400860BC
:100C2000B149207D51F83000A16AC0F3094020632A
:100C300008440021A0622046FFF7D0FD607C002818
:100C4000A2D0E06A00289FD12068617C41F0800139
:100C5000C1640020607497E7020559D4000493D55D
:100C60000868284040F08000086094F8540104F0BF
:100C700009F9C4F8700198B1D4F8681181B1B4F8D9
:100C80005A210346206805F0A3FCD4F86801D4F883
:100C9000701108440021C4F868012046FFF704FEE3
:100CA000206801680A053FF56FAF01F44051B1F5C6
:100CB000405F3FF469AF8C4B596821F07C4159602B
:100CC000D4F86411002900F0DF813E2900F2DE81B2
:100CD00001F0010202EB51015A6842EA8161E2E14E
:100CE000307804F0CFF800284DD0B8F85A210746E4
:100CF00042E0307803F09DFF51F82010490435D4CC
:100D000004F0B0F800283ED00746B8F85E2133E082
:100D100094F8540104F0B6F8B4F85A210346C4F824
:100D200070012068009905F053FC20680168294093
:100D300041F080010160204600F03CFB24E704F014
:100D40007FF80746D9F800000021C01B38BF0846CD
:100D5000C9F8000001D803F0F9FF5FEA4A6003D543
:100D60003078216803F065FF27B90CE004F068F8DB
:100D700048B10746B8F85C21D8F8681120683B46AE
:100D800005F026FC00E0002708F5B47207CA3A44D3
:100D90003844C8F87021C8F8680119B1D8F864015E
:100DA000B84204D931782046FFF77EFD03E0206881
:100DB000314605F0A5F95FEA0A607FF5E5AE2068E7
:100DC00050F82B10294041F4004140F82B100BEB58
:100DD0008B0104EBC107F97D07F1140B01291DD12B
:100DE0000020F86297F82000002800F0D680787D77
:100DF0005FEA4A6163D4012800F0B880002840F01F
:100E0000CC809BF80000384901EBC000416821F01C
:100E10007C414160416841F00041B0E05FEACA5165
:100E200018D49BF80010304A002652F83120FB6A93
:100E3000C2F309429B1A38BF3346FB6240F2AF80CF
:100E4000B96A3B6B1144B96299183963594605F088
:100E500057F999E69BF80000A94607F12C055FEACF
:100E60004A6143D403F0FEFF29680022091A38BF03
:100E7000114629606AD95FEA4A4101D403F017FF9D
:100E80003A4612F8381F012940F064813D4655F872
:100E9000348F55E904C155F804EC0EEB000345F816
:100EA000043C014445F80C1CE04580F0AA80B8F1F0
:100EB000000F00F01A810020C4461070A3E0012842
:100EC0005FD0002869D19BF80000E44A52F8301046
:100ED00021F07C4142F8301052F8301041F00041CE
:100EE00059E000BF0F0FFF070064014003F0A8FFA7
:100EF00029680022091A38BF114629602ED95FEAF5
:100F00004A4101D503F0D3FE3D4615F8381F0129AB
:100F100040F020813A4652F834CF52E9048152F829
:100F200004EC0EEB000342F8043C014442F80C1CB4
:100F3000C44580F087804FF0000EBCF1000FC74B16
:100F400085F800E040F08280844681E0787D50B3EF
:100F50000128C24A2ED103F01EFD29E0787D90B30E
:100F60000128BE4A36D103F016FD31E09BF800009F
:100F7000BA4901EBC000416889B2416041684160F3
:100F80000BE09BF80000B54A52F8301089B242F8E5
:100F9000301052F8301042F830109BF80010204604
:100FA000FFF71CFCF0E59BF80010AC4A03F0B5FC21
:100FB000426001E09BF800102046FFF70FFC5FEA5B
:100FC0004A4010D5C6E09BF80010A44A03F0A5FCE7
:100FD000426001E09BF800102046FFF7FFFB5FEA4C
:100FE0004A4040F1B7809BF8000021684B464CF224
:100FF000800351F8202002EA09021A4341F8202018
:10100000A8E0A8EB0C002860787D944A012854D011
:10101000002840F084809BF80000BCF1000F02EB38
:10102000C00050F8042F22F07C42026061D0BCF175
:101030003E0F65D80CF00102036802EB5C0243EA44
:1010400082626BE0ACEB080EC446844BC2F800E051
:10105000787D01283DD0002876D19BF80000BCF1B6
:10106000000F53F8302022F07C4243F8302042D069
:10107000BCF13E0F55D853F830200CF0010303EBC0
:101080005C0342EA83625CE059680AE0CA064FF0FA
:10109000FF364FEA511208BF06EB5112596841EA78
:1010A000826141F00041596005F5405102681140EC
:1010B0004BF280025140016066E59BF8000002EBB4
:1010C000C000426892B24260426842EA0C4242600A
:1010D00025E09BF8000053F8302092B243F830200E
:1010E00053F8302042EA0C422CE00023844613706F
:1010F0008AE7026810E053F8302042F0004221E015
:101100005FEACC624FF0FF334FEA5C1208BF03EB9B
:101110005C12036843EA826242F000420260FA8B8A
:1011200013E05FEACC624FF0FF334FEA5C1208BF76
:1011300003EB5C12494B53F8303043EA826242F0D1
:101140000042464B43F83020BA8B1FFA8CF32068DC
:1011500005F060FA9BF80000216809F130034D4664
:1011600051F820201A4048F2B0035A4041F820209C
:101170000AE520684FF6FF32416C11404164204679
:1011800000F0EAF820460021BDE8F84F00F004B96D
:1011900020684BF6FF721DE020684DF6FF7219E0E3
:1011A0002068016C21F004010164016C21F0080148
:1011B000016494F8CC02012806D10020002184F8B3
:1011C000CC022046FFF7EFFA204600F0D5F8206861
:1011D0004EF6FF72416C11404164BDE8F88F206803
:1011E0004FF2FF72016C41F008010164416C114043
:1011F0004164016C41F00401016408E020684FF68D
:101200007F72416C1140416494F8CC1279B1204650
:10121000BDE8F84F00F034B920684FF6FF52416C3A
:10122000114041642046BDE8F84F00F0ADB8016CB4
:1012300041F004010164016C41F0080101640121E5
:1012400084F8CC123C21406D01EA90000121C4F8E1
:10125000D0022046BDE8F84FFFF7A5BA0064014070
:10126000002843D07CB5044690F8950228B90020A8
:1012700084F89402204600F03BF8032084F895029D
:10128000206804F0E7FE20790021012200230025D8
:10129000A84209D0E61828333575C6E90911F1626C
:1012A000F17572750135F3E704F5AA710022002388
:1012B000984208D00B70C1E904228A61CA704A7052
:1012C00028310133F4E794E80F00257C009504F001
:1012D000B3FE00200121607484F89512217B01295E
:1012E00003D12046FFF74EFA00207CBD0120704755
:1012F00010B5C4B0044602A84FF480710830FFF75F
:101300004CF82068124988421FD100F0C3F8102021
:101310000390002002903020419002A801F012F8C2
:1013200008B1FFF7A0F80B480022016841F0807176
:1013300001600021006800F08070019001984A204F
:10134000FFF7EAF94A20FFF7D7F944B010BD00BF14
:1013500000600140A40C0244B0B54D4C2068406AC6
:1013600008B106F0C9FE20680125C0F8885105F0D3
:101370005BFA20684562B0BD45480068D0F8AC1102
:1013800009B1F3200847704741480068D0F8AC1114
:1013900009B1F0200847704710B503F0F9FC04BF0D
:1013A000022010BD617403F013FC05F02DF903F069
:1013B0009FBB0000F8B505463548082205F52771A2
:1013C0000068C469676807F16C0007F0DCFAA06880
:1013D000012220F00E017A630020A1607865B864D4
:1013E00097F96C20B2F1FF3FDEBF41F48070A0603E
:1013F000F8BDA073384610F8722F12B997F8732011
:10140000E2B1BE6B07F032FBB0F5807F786409D99A
:101410002046314605F073F900202073A06840F49F
:1014200000700DE003460020FA6B317DB864284659
:101430003A64FFF725FB02202073F8BD41F40070E9
:10144000A060F8BD10B503F0A3FC04BF022010BDDE
:1014500003F0BEFB05F0B0F8206804F0E1FD03F0F6
:1014600047BB10B503F094FC04BF022010BD03F08D
:10147000AFFB04F0EFFD206804F0D8FD03F038BBAB
:1014800003480068D0F8AC1109B1F4200847704750
:10149000300600200248016841F000710160704789
:1014A00038080244014803F022BA00BF240802446D
:1014B00070B52F494B6B8C6A8A6A8D6A8E6BC2F34A
:1014C000052272B103F09AFC0FD0022C16D001EE67
:1014D000103A0B689FED272A012C914C03F04FFB2B
:1014E00016E00021C0E900113FE001EE103A9FED47
:1014F000212A03F06FFA9FED202A07E001EE103A4F
:101500009FED1C2A03F066FA9FED1C2A03F07AFA7D
:101510000A6820EE010A920102D58A6AD20301D438
:10152000002206E04A6BB7EE002AC2F3462203F01F
:10153000C5FA02600A68920102D58A6A920301D450
:10154000002206E04A6BB7EE002AC2F3064203F01F
:10155000B5FA42600A68920102D58A6A520301D440
:10156000002102E0496B03F020FC816070BD00BFE8
:10157000000C0244000000390024F44A0024744A9C
:1015800070B52F49CB6BCC6ACA6ACD6A0E6CC2F3B8
:10159000052272B103F032FC0FD0022C16D001EEFE
:1015A000103A0B689FED272A012C5D4C03F0E7FAF7
:1015B00016E00021C0E900113FE001EE103A9FED76
:1015C000212A03F007FA9FED202A07E001EE103AE6
:1015D0009FED1C2A03F0FEF99FED1C2A03F012FA7E
:1015E0000A6820EE010A120102D5CA6AD20301D4A8
:1015F000002206E0CA6BB7EE002AC2F3462203F0CF
:101600005DFA02600A68120102D5CA6A920301D427
:10161000002206E0CA6BB7EE002AC2F3064203F0CE
:101620004DFA42600A68120102D5CA6A520301D417
:10163000002102E0C96B03F0B8FB816070BD00BF00
:10164000000C0244000000390024F44A0024744ACB
:1016500070B52F494B6C0C6B0A6B0D6B8E6CC2F323
:10166000052272B103F0CAFB0FD0022C16D001EE96
:10167000103A0B689FED272A012C294C03F07FFAC2
:1016800016E00021C0E900113FE001EE103A9FEDA5
:10169000212A03F09FF99FED202A07E001EE103A7E
:1016A0009FED1C2A03F096F99FED1C2A03F0AAF97E
:1016B0000A6820EE010A920002D50A6BD20301D417
:1016C000002206E04A6CB7EE002AC2F3462203F07D
:1016D000F5F902600A68920002D50A6B920301D400
:1016E000002206E04A6CB7EE002AC2F3064203F07D
:1016F000E5F942600A68920002D50A6B520301D4F0
:10170000002102E0496C03F050FB816070BD00BF16
:10171000000C0244000000390024F44A0024744AFA
:101720000090D003BFB5431E024661F100040020C3
:10173000D3F1070570EB040480F0E58082F010031C
:101740000B4300F06B8182F020030B4300F0928189
:1017500082F040030B4300F0B98182F080030B4319
:1017600000F0E08182F480730B4300F0078282F482
:1017700000730B4300F01B8282F480630B4300F084
:10178000478282F400630B4300F0698282F4805345
:101790000B4300F08B8282F400530B4300F0AD82C8
:1017A00082F480430B4300F0C78282F400430B4372
:1017B00000F0E08282F480330B4300F0FA8282F47E
:1017C00000330B4300F00C8382F480230B4300F0C2
:1017D000178382F400230B4300F0268382F48013E6
:1017E0000B4300F0318382F400130B4300F03C8381
:1017F00082F480030B4300F05C8381F48063134325
:1018000000F05E8382F080630B4300F0728382F00D
:1018100000630B4300F07B8382F080530B4300F0A6
:10182000868382F000530B4300F0988382F080435C
:101830000B4300F0A78382F000430B4300F0D483F6
:1018400081F00103134300F0018481F0020313438C
:1018500000F0308481F00403134300F03A8481F0F7
:101860000803134300F0438481F01003134300F096
:10187000558481F02003134300F0648481F0400319
:10188000134300F06C8481F08003134300F07484F0
:1018900081F48073134300F07C8481F4007313435C
:1018A00000F0A98482F00072114340F0FC84D64914
:1018B000D1F8F00000F44072D1F8F000800703D5B1
:1018C000B2F5807F00F0A284D1F8F000000103D5CA
:1018D000B2F5007F00F01F84086880034FF000001D
:1018E00040F1E184B2F5407F40F0DD84C86910F436
:1018F000785F00F0DA84C869C449C0F30520B1FB01
:10190000F0F000F0D0BCDFE813F008001100CE04C6
:101910003400CE04CE04CE045D00BB48D0F8D8100D
:1019200011F0070140F07B8100F0C0BBB648D0F851
:10193000D81011F0380100F073820268082903D131
:1019400012F0006240F0AB84102900F0F7830368C6
:101950000268182903D113F0020340F0778420298C
:1019600003D112F4007240F0B28403F00BFA28297C
:10197000C0E1A548D0F8D81011F4E07100F0508211
:101980000268402903D112F0006240F088840268A6
:10199000802903D112F0005240F0D083036802681E
:1019A000C02903D113F0020340F05084B1F5807FC9
:1019B00003D112F4007240F08A8403F0E3F9B1F528
:1019C000A07F97E19048D0F8D81011F4606100F042
:1019D00027820268B1F5007F03D112F0006240F067
:1019E0005E840268B1F5806F03D112F0005240F0BE
:1019F000A58303680268B1F5C06F03D113F0020339
:101A000040F02484B1F5006F03D112F4007240F06D
:101A10005E8403F0B7F9B1F5206F6BE17A48D0F836
:101A2000D81011F4E04100F0FB810268B1F5805F4D
:101A300003D112F0006240F032840268B1F5005F19
:101A400003D112F0005240F0798303680268B1F5C7
:101A5000405F03D113F0020340F0F883B1F5804FEB
:101A600003D112F4007240F0328403F08BF9B1F527
:101A7000A04F3FE16448D0F8D81011F4603100F075
:101A8000CF810268B1F5004F03D112F0006240F03F
:101A900006840268B1F5803F03D112F0005240F095
:101AA0004D8303680268B1F5C03F03D113F0020310
:101AB00040F0CC83B1F5003F03D112F4007240F046
:101AC000068403F05FF9B1F5203F13E14E48D0F8EA
:101AD000D81011F4E01100F0A3810268B1F5802F55
:101AE00003D112F0006240F0DA830268B1F5002FF2
:101AF00003D112F0005240F0218303680268B1F56F
:101B0000402F03D113F0020340F0A083B1F5801FF2
:101B100003D112F4007240F0DA8303F033F9B1F527
:101B2000A01FE7E03848D0F8D81011F4600100F0A9
:101B300077810268B1F5001F03D112F0006240F016
:101B4000AE830268B1F5800F03D112F0005240F06D
:101B5000F58203680268B1F5C00F03D113F00203E8
:101B600040F07483B1F5000F03D112F4007240F01D
:101B7000AE8303F007F9B1F5200FBBE02248D0F89F
:101B8000D81011F0E06100F04B810268B1F1807F64
:101B900003D112F0006240F082830268B1F1007F4D
:101BA00040F0948012F0005240F0C8828EE0164857
:101BB000D0F8D81011F0605100F032810268B1F114
:101BC000006F03D112F0006240F069830268B1F146
:101BD000805F03D112F0005240F0B08203680268C7
:101BE000B1F1C05F03D113F0020340F02F83B1F1D4
:101BF000005F03D112F4007240F0698303F0C2F871
:101C0000B1F1205F76E000BF000C024400127A00C0
:101C1000CF48D0F8DC1011F0070100F00181026814
:101C2000012903D112F0006240F0398302680229D1
:101C300003D112F0005240F0818203680268032948
:101C400003D113F0020340F00183042903D112F4FD
:101C5000007240F03C8303F095F805294AE0BC4847
:101C6000D0F8DC1011F0700100F0DA800268102961
:101C700003D112F0006240F012830268202903D1E0
:101C800012F0005240F05A8203680268302903D1F2
:101C900013F0020340F0DA82402903D112F40072FB
:101CA00040F0158303F06EF8502923E0A848D0F8DF
:101CB000E01001F0E061B1F1007F00F03F82B1F18E
:101CC000807F00F0EC82002900F0708203680268D7
:101CD000B1F1407F03D113F0020340F0B782B1F1BC
:101CE000806F03D112F4007240F0F18203F04AF8E1
:101CF000B1F1A06F08BF9003D5E29548D0F8E41089
:101D000001F44031B1F5803F00F05482002900F029
:101D1000878002680068B1F5003F03D112F002022B
:101D200040F0E48010F400701CBF40F60010C0F2D8
:101D30003D00B1F5403FFAE28548D0F8E41001F4E7
:101D40004021B1F5802F00F03582002968D002686B
:101D50000068B1F5002F03D112F0020240F0C680F6
:101D600010F400701CBF40F60010C0F23D00B1F549
:101D7000402FDCE27648D0F8E41001F44011B1F5D0
:101D8000801F00F01782002900F0108202680068AE
:101D9000B1F5001F03D112F0020240F0A78010F449
:101DA00000701CBF40F60010C0F23D00B1F5401FAE
:101DB000BDE26749D1F8E40000F04072B2F1807FE3
:101DC00000F0F881002A2BD000200B68B2F1007FD0
:101DD00040F0698213F0020200F06582086885E035
:101DE0005B48D0F8DC10C1F30221052900F25D82C6
:101DF000DFE811F0DC01E401E00114021B02E9015B
:101E00005348D0F8DC10C1F30231052900F24D82AD
:101E1000DFE811F00600D401D00104020B02D90161
:101E2000BDE8BF4001F05CB94949D1F8E800C0F312
:101E30000242042A00F239824648DFE812F02C02FE
:101E4000BF019F003402FE014149D1F8E800C0F310
:101E5000C242042A00F229823E48DFE812F01C0246
:101E6000AF018F002402EE013948D0F8E81001F0EC
:101E70000701022900F0CD81012900F02A82002902
:101E800000F023810268032903D112F4003240F0EC
:101E90002C8102680068042902D112F0020225D1C7
:101EA00010F400701CBF40F60010C0F23D00052980
:101EB0003DE22748D0F8E400400640F1EC81A8E17B
:101EC0002348D0F8E41001F44001B1F5800F00F090
:101ED0007181002900F06A8102680068B1F5000F85
:101EE00040F01C8212F0020200F01882C0F3C10020
:101EF000AEE11748D0F8E8100268920401F0300112
:101F000040F1AE81002940F0AB811348CBE110498C
:101F1000D1F8E00000F00702042A00F2C6810D4863
:101F2000DFE812F0B9014C012C00C1018B01084916
:101F3000D1F8E000C0F3C202042A00F2B6810548DD
:101F4000DFE812F0A9013C011C00B1017B0100BFD8
:101F5000000C02440080BB00006CDC02BE49D1F8DA
:101F6000E000C0F38212042A00F29F81BB48DFE840
:101F700012F09201250105009A01640101A8FFF702
:101F800067FB1EE1B448D0F8E01011F4606100F086
:101F90008D800268B1F5007F03D112F0006240F03D
:101FA0007E810268B1F5806F03D112F0005240F0DB
:101FB000C58003680268B1F5C06F03D113F0020356
:101FC00040F04481B1F5006F03D112F4007240F08B
:101FD0007E81006810F400301CBF41F20020C0F286
:101FE0007A00B1F5206FA2E19B48D0F8E01011F41F
:101FF000E04100F0DB800268B1F5805F03D112F0B0
:10200000006240F04C810268B1F5005F03D112F02C
:10201000005240F0938003680268B1F5405F03D13D
:1020200013F0020340F01281B1F5804F03D112F496
:10203000007240F04C81006810F400301CBF41F287
:102040000020C0F27A00B1F5A04F70E1B948D0F895
:10205000E01011F4603129D00268B1F5004F03D1CE
:1020600012F0006240F01B810268B1F5803F02D19E
:1020700012F0005262D103680268B1F5C03F03D18B
:1020800013F0020340F0E280B1F5003F03D112F4F7
:10209000007240F01C81006810F400301CBF41F257
:1020A0000020C0F27A00B1F5203F40E1BDE8BF401A
:1020B00001F020B89F48D0F8E41001F00301DFE8F8
:1020C00011F00400EA00A8008200BDE8BF4000F063
:1020D000F3BF9849D1F8E8000968890300F440701B
:1020E00040F1D380002840F0D0809548DBE0914853
:1020F000D0F8E810D0F8F02001F0C001920702D526
:10210000002900F08380D0F8F020120140F1E58032
:10211000402940F0E2804FF4FA40C4E08548D0F80E
:10212000E41001F03001102900F0B5800268202988
:1021300040F0DC8012F0005200F0D88001A8FFF7D8
:1021400087FAAFE07B48D0F8DC10C1F302410529E3
:1021500000F2AB80DFE801F02A322E626937754861
:10216000D0F8DC10C1F30251052900F29E80DFE8AF
:1021700001F01D2521555C2A6E48D0F8DC10C1F312
:102180000261052900F29180DFE801F0101814487F
:102190004F1D6848D0F8DC10C1F30271052900F228
:1021A0008480DFE801F0030B073B4210BDE8BF402D
:1021B00000F0AABF01A8FFF74BFA2DE001A8FFF736
:1021C000DFF901986FE0D0F8E810036802689B0718
:1021D00001F0404100D5C9B3920502D5B1F1804F5D
:1021E00075D00022B1F1004F04BF41F20022C0F2CD
:1021F0007A0200688DE04F48D0F8E810D0F8F0205F
:1022000001F00801920752D5002950D14FF4004047
:1022100049E001A8FFF7B4F9039844E0D0F8F000D2
:102220004FF4004101EA80303DE0D0F8F0004FF477
:10223000FA41000101EAE07035E0D1F8E8000B68EE
:102240000A689B0700F040403CD5D8BBC2F3C100F0
:102250003A4921FA00F026E0000C02440080BB005D
:102260000268920101D5102915D0D0F8F02092070C
:1022700001D52029CAD00022302908BF4FF4FA42E4
:10228000D0F8F00010F0006045E0B0F5007F06D017
:10229000B0F5807F09D101A8FFF70AF902E001A893
:1022A000FFF76EF9029804B0B0BD0020FBE70029EB
:1022B00018BF4FF4FA41D0F8F00010F0006018BFDA
:1022C0000846F0E792051BD5B0F1804F18D11A48A7
:1022D000E9E7BDE8BF4000F025BF0022802908BF24
:1022E00048F21202006810F4007014E0006810F464
:1022F00000501CBF46F60040C0F2DC20302916E03A
:102300000022B0F1004F04BF41F20022C0F27A0275
:10231000086810F4003018BF1046C4E710F40070CD
:102320001CBF40F60010C0F23D00B1F5400F18BFD1
:102330000020B8E7000C024400093D000090D003E3
:1023400000127A002DE9F04704460068C1019F4958
:10235000894608D5A16DD9F8C0204B4622F04042ED
:102360001143C9F8C010C0070ED0E06D05281FD872
:10237000DFE800F0032023030303D9F8B0104A4636
:1023800021F0070102F08BFB00262078800701D4A2
:10239000354628E0206E4FEAF000052814D835466F
:1023A000DFE800F018031518181802F0E6FA10E03C
:1023B0000126EAE702F0E1FA01E002F094FA0646AB
:1023C0000028E2D1E06DD8E7012501270CE002F0FA
:1023D0008AFA05462F463DB9206E02F009FB21F02E
:1023E000380102F05CFB3746207840071BD5606E51
:1023F0004FEAB010052807D8DFE800F00C03090CFD
:102400000C0C02F0BAFA04E0012501260CE002F0FF
:102410006AFA05462E463DB9606E02F0E9FA21F4EB
:10242000E07102F03CFB3E46207800071BD5A06E11
:102430004FEA7020052807D8DFE800F00C03090CEC
:102440000C0C02F09AFA04E0012501270CE002F0DE
:102450004AFA05462F463DB9A06E02F0C9FA21F4AA
:10246000606102F01CFB37462078C0061BD5E06E89
:102470004FEA3030052807D8DFE800F00C03090CDC
:102480000C0C02F07AFA04E0012501260CE002F0BF
:102490002AFA05462E463DB9E06E02F0A9FA21F46B
:1024A000E04102F0FCFA3E46207880061BD5206F02
:1024B0004FEAF030052807D8DFE800F00C03090CDC
:1024C0000C0C02F05AFA04E0012501270CE002F09E
:1024D0000AFA05462F463DB9206F02F089FA21F429
:1024E000603102F0DCFA3746207840061BD5606F79
:1024F0004FEAB040052807D8DFE800F00C03090CCC
:102500000C0C02F03AFA04E0012501260CE002F07E
:10251000EAF905462E463DB9606F02F069FA21F4EA
:10252000E01102F0BCFA3E46207800061BD5A06FF1
:102530004FEA7050052807D8DFE800F00C03090CBB
:102540000C0C02F01AFA04E0012501270CE002F05D
:10255000CAF905462F463DB9A06F02F049FA21F4A9
:10256000600102F09CFA37466078C0071BD0E06F2C
:102570004FEA3060052807D8DFE800F00C03090CAB
:102580000C0C02F0FAF904E0012501260CE002F03F
:10259000AAF905462E463DB9E06F02F029FA21F06E
:1025A000E06102F07CFA3E466078800720D5D4F8DE
:1025B00080004FEAF06005280AD8DFE800F00F033A
:1025C0000C0F0F0F02F0D9F907E000BF280C0244EE
:1025D000012501270DE002F086F905462F4645B991
:1025E000D4F8800002F004FA21F0605102F057FAAA
:1025F0003746607840071BD5D4F88400052807D8F3
:10260000DFE800F00C03090C0C0C02F0B6F904E052
:10261000012501260DE002F066F905462E4645B972
:10262000D4F8840002F0E9F921F0070102F068FA19
:102630003E46607800071DD5D4F888004FEA301078
:10264000052807D8DFE800F00C03090C0C0C02F099
:1026500094F904E0012501270DE002F044F9054654
:102660002F4645B9D4F8880002F0C7F921F070016F
:1026700002F046FA37466078C0061DD5D4F88C00C3
:102680004FEA3060052807D8DFE800F00C03090C9A
:102690000C0C02F072F904E0012501260DE002F0B5
:1026A00022F905462E4645B9D4F88C0002F0C0F94F
:1026B00021F0E06102F044FA3E46607880061AD5C7
:1026C000D4F890006FF0010101EB3041022908D3EA
:1026D0004FEA304028B1012840F0AB8002F003F906
:1026E00005462F4645B9D4F8900002F098F921F438
:1026F000403102F010FA3746607840061AD5D4F817
:1027000094006FF0010101EBB041022908D34FEAB8
:10271000B04028B1012840F08F8002F0E4F805466F
:102720002E4645B9D4F8940002F079F921F44021FD
:1027300002F0F1F93E46607800061AD5D4F8980008
:102740006FF0010101EB3051022908D34FEA3050FC
:1027500028B1012840F0738002F0C5F80546A8466C
:1027600045B9D4F8980002F05AF921F4401102F06A
:10277000D2F9B0466079400719D5D4F89C006FF0C3
:10278000010101EBB051022907D34FEAB05020B14B
:10279000012858D102F0A7F805462F4645B9D4F8CC
:1027A0009C0002F03CF921F4400102F0B4F94746E4
:1027B000A078C00715D0D4F8A00040B1B0F1007FD8
:1027C00005D0B0F1807F31D102F08DF805462E465C
:1027D00045B9D4F8A00002F022F921F0407102F0CE
:1027E0009AF93E46D4E90001090594498A460DD577
:1027F000DAF80010534621F40041CAF80010D4F86A
:102800000011DAF800201143CAF8001080032DD51A
:10281000D4F8A4004FEA3020052817D8DFE800F0EC
:102820001C03191C1C1C02F0A8F814E00125012649
:10283000D8E7012501275FE7012501267BE7012570
:102840004FF0010896E701250127B1E7012501278F
:102850000DE002F048F805462F4645B9D4F8A4002B
:1028600002F0CBF821F4E06102F04AF93746A07893
:1028700040071DD5D4F8A8004FEA3030052807D806
:10288000DFE800F00C03090C0C0C02F076F804E011
:10289000012501260DE002F026F805462E4645B931
:1028A000D4F8A80002F0A9F821F4E04102F028F9D8
:1028B0003E46207980061DD5D4F8AC004FEA304062
:1028C000052807D8DFE800F00C03090C0C0C02F017
:1028D00054F804E0012501270DE002F004F8054654
:1028E0002F4645B9D4F8AC0002F087F821F4E02176
:1028F00002F006F93746207940061DD5D4F8B0001D
:102900004FEA3050052807D8DFE800F00C03090C27
:102910000C0C02F032F804E0012501260DE001F074
:10292000E2FF05462E4645B9D4F8B00002F065F83E
:1029300021F4E00102F0E4F83E46207900061DD5BE
:10294000D4F8B4004FEA3060052807D8DFE800F07B
:102950000C03090C0C0C02F010F804E0012501270F
:102960000DE001F0C0FF05462F4645B9D4F8B4008C
:1029700002F043F821F0E06102F0C2F837466079D6
:10298000C0071DD0D4F8B8004FEA3070052807D82A
:10299000DFE800F00C03090C0C0C01F0EEFF04E082
:1029A000012501260DE001F09EFF05462E4645B9A2
:1029B000D4F8B80002F021F821F0E04102F0A0F8CC
:1029C0003E46A078000720D5D4F8C0004FEA30403A
:1029D000042807D8DFE800F003090C0F0F0002F00D
:1029E00011F908E00125012710E001F0C6FF01E020
:1029F00001F079FF05462F4645B9D4F8C00002F032
:102A000095F821F4E02102F0ADF83746A078C00631
:102A100023D5D4F8C4004FEAF040042807D8DFE8F3
:102A200000F003090F12120002F0ECF80BE0012590
:102A3000012613E001F0A1FF04E000BF1C0C0244DA
:102A400001F051FF05462E4645B9D4F8C40002F006
:102A50006DF821F4601102F085F83E46A0788006FA
:102A600011D5D4F8D000052800F24681022800F0E4
:102A70004681294645B9D4F8D00002F057F821F034
:102A8000070102F06FF83146D4E90002920510D533
:102A9000D4F8D42042F00803082B0CD1A8466DB915
:102AA000D9F8C0304D46002523F008031A43C9F871
:102AB000C020884602E001254FF00108800101D4C2
:102AC000404619E0B34F5AF8070040F001004AF8B9
:102AD0000700FDF793FD064650465AF80700C00769
:102AE00007D1FDF78BFD801B0228F5D903250320B4
:102AF00002E0002D28464FD021684A011ED5D4F8A7
:102B0000C8206FF0010303EB3213022B0BD34FEA03
:102B1000321343B1012B3CD1D9F800304E4643F477
:102B20000033C9F800302E464DB9D9F8C0304D46B3
:102B3000002523F030031A43C9F8C0200646480296
:102B400014D5D4F8CC00402803D088B902F05AF844
:102B500002E001F012FF05462F465DB9D4F8CC0023
:102B600001F05DFF21F0400101F0D5FF374601E0A3
:102B700001250127E078000762D5D4F8DC0004289D
:102B80004BD8DFE800F0034D5053530002F03AF801
:102B90004CE001250126D2E74846D9F8C80010F4D8
:102BA000407019D0D4F8F410884212D0D9F8C80077
:102BB000D9F8C8104A4641F4803120F44070C9F871
:102BC000C810D9F8C81021F48031C9F8C810C9F864
:102BD000C800C00740F05981D4F8F400DAF80020AA
:102BE000B44900F4407322F47C5201EA10116FF3EF
:102BF0001F30B3F5407F08BF0A43CAF80020D9F858
:102C0000C81000254A4621F44071C9F8C810D9F807
:102C1000C8100843C9F8C80052E70125012610E092
:102C200001F0ABFE01E001F05EFE05462E4645B91F
:102C3000D4F8DC0001F0FCFE21F0070101F080FF78
:102C40003E46E078C00620D5D4F8E0004FEAF00018
:102C5000042807D8DFE800F003090C0F0F0001F08B
:102C6000D1FF08E00125012710E001F086FE01E018
:102C700001F039FE05462F4645B9D4F8E00001F0D1
:102C8000D7FE21F0380101F05BFF3746E07880067F
:102C900020D5D4F8E4004FEAB010042807D8DFE8C4
:102CA00000F003090C0F0F0001F0ACFF08E0012554
:102CB000012610E001F061FE01E001F014FE05467E
:102CC0002E4645B9D4F8E40001F0B2FE21F4E071DB
:102CD00001F036FF3E46E078400624D5D4F8E800FF
:102CE0004FEA702005280ED8DFE800F01303101318
:102CF000131301F042FE0BE001250121C4E601F0AF
:102D00003CFE0546B5E6012501270DE001F0EBFD8F
:102D100005462F4645B9D4F8E80001F089FE21F4B4
:102D2000606101F00DFF3746E07800061DD5D4F84C
:102D3000EC004FEA3030052807D8DFE800F00C033C
:102D4000090C0C0C01F019FE04E0012501260DE030
:102D500001F0C9FD05462E4645B9D4F8EC0001F056
:102D600067FE21F4E04101F0EBFE3E462079C0070A
:102D70001FD0D4F8F0004FEAF030052807D8DFE87C
:102D800000F00E030B0E0E0E01F0F7FD06E001251C
:102D900001270FE008FCFFFF01F0A5FD05462F46C7
:102DA00045B9D4F8F00001F043FE21F4603101F0A0
:102DB000C7FE3746207980071AD5D4F8D8000328F3
:102DC00006D8DFE800F00B02080B01F01BFF05E05E
:102DD000012501260DE001F0D0FD05462E4645B93E
:102DE000D4F8D80001F01BFE21F0030101F093FE9E
:102DF0003E462079400718D5D4F8BC0058B1B0F54C
:102E0000007F05D0B0F5807F1ED101F0FBFE02E00F
:102E100001F0B3FD05462F4645B9D4F8BC0001F0DA
:102E200085FE21F4407101F09DFE37462079C006F1
:102E30001AD5D4F8FC0030280CD0202807D0102850
:102E400021D101F0DFFE05E001250127EEE701F0C9
:102E50004AFD05464DB9D4F8FC00D9F8BC104A46E5
:102E600021F0300101F057FE3D462079000707D5DB
:102E7000D4F8F800D9F8C01021F0C00101F072FEBA
:102E80002846BDE8F0870125EFE7FDF7B7FB0646CA
:102E900041F2883703254846D9F8C80080073FF536
:102EA0009BAEFDF7ABFB801BB8424FF00300F2D99D
:102EB00022E600BFCFFFFF002DE9F843002800F015
:102EC000A6807B4B04460D46186800F00F00884230
:102ED0000AD2186820F00F0028431860186800F024
:102EE0000F00A84240F093802068C94FC1060CD55E
:102EF000396A702202EA11226169914205D93A6A5F
:102F000022F4E04242EA01213962010704D501F0CE
:102F1000E4FE01D901F02FFF994641070AD5E16887
:102F20003A6A02F07002914281BF3A6A22F070025E
:102F30001143396281070AD5A1683A6A02F00F028B
:102F4000914281BF3A6A22F00F0211433962C007F1
:102F500053D1206881070AD5A1683A6A02F00F02AE
:102F600091423FBF3A6A22F00F0211433962D9F809
:102F7000001001F00F01A9420CD9D9F8001021F07E
:102F80000F012943C9F80010D9F8001001F00F0112
:102F9000A9423CD141070AD5E1683A6A02F07002C1
:102FA00091423FBF3A6A22F0700211433962010731
:102FB00004D501F092FE01D201F0DDFEC0060CD571
:102FC000386A702101EA10216069884205D2396AA5
:102FD00021F4E04141EA0020386200F0A3F8396AA8
:102FE0003D4A01F00F01515CC8403C49086031483E
:102FF0000068BDE8F843FDF739BB6068012809D0D7
:1030000002284DD003284FD13968890105D4012009
:10301000BDE8F88339688905F9D5F96921F003011C
:103020000843F861FDF7EAFA0646606841F288381D
:10303000032823D002282DD001280CD1F86900F0F4
:10304000180008283FF485AFFDF7D8FA811B03204C
:103050004145F3D90AE0F86910F0180F3FF479AF51
:10306000FDF7CCFA811B03204145F4D9BDE8F88374
:10307000FDF7C4FA811B03204145F7D8F86900F039
:1030800018001828F4D164E7FDF7B8FA811B032073
:103090004145EBD8F86900F018001028F4D158E742
:1030A00039688903B3D5B8E739688907AFD5B4E77C
:1030B000002002400400002080B500F033F81749DA
:1030C000054A096801F00F01515C01F01F01C84079
:1030D0000249086080BD00BF3A8D00083C00002016
:1030E00080B5FFF7E9FF0D490D4A0968C1F30211E8
:1030F00001F0DFBC80B5FFF7DFFF0849084A096827
:10310000C1F3022101F0D5BC80B5FFF7D5FF03491B
:10311000034A0968C1F3023101F0CBBC200C024420
:103120004A8D0008B0B53A49C86900F0180008286F
:1031300004BF3848B0BDC86910F0180F32D0C86954
:1031400000F01800102804BF3348B0BDC86900F073
:1031500018023248182A5AD18B6A8A6A8C6A8D6B97
:10316000C2F305223AB3E406ED0803F0030305EACF
:10317000E474032B6FF35F3400EE104AB8EE400A9C
:103180001BD0012B1CD10B689B0651BF9FED251A4C
:103190000B68C3F3C103D84044BF01EE100AB8EE78
:1031A000411A0FE0086880061C4830D50968C1F351
:1031B000C101C840B0BD0020B0BD9FED191A01E0AB
:1031C0009FED191A486B9FED193A6FF35F2002EEDD
:1031D000100A486BC0F34620B8EE422A013000EED8
:1031E000032AB7EE000A32EE000A02EE102AB8EE09
:1031F000422A81EE021A21EE000A01EE100AB8EE10
:10320000411A80EE010ABCEEC00A10EE100AB0BDF1
:10321000000C024400093D0000127A000090D00327
:103220000024F44A0024744C0024744A000000393D
:1032300050B32DE9F843E04F0446F86900F0180850
:10324000DE488146006800F003062078C00628D5D5
:10325000B8F1080F1AD0B8F1180F08BF022E15D018
:103260003868E169002900F05D8140F4807001F068
:1032700037FB0546386880050CD4FDF7BFF901F02F
:1032800078FBF7D9BDE8F88301207047E069002892
:1032900000F0D380206AB96921F47C1141EA004032
:1032A000B8612078C00727D0B8F1100F20D0B8F14E
:1032B000180F08BF032E1BD06068002800F0808123
:1032C000B0F5A81F00F09581B0F5A02F00F099810E
:1032D000B0F5803F00F09D81386820F48030386080
:1032E000386820F480203860386820F4801093E13A
:1032F0006068002800F0A180207880074DD5B8F1E3
:10330000000F1DD0E068B8F1180F08BF012E2FD0B4
:103310003968002800F03181206921F01801084344
:103320003860386840F0010001F0DAFA0546386884
:1033300080072BD4FDF762F901F01BFBF7D9A1E759
:10334000E068002879D02069396801F018018142CD
:1033500010D0396821F0180108433860FFF7ACFE3F
:10336000DFF818040068FDF781F9002865D101E055
:10337000002862D0FDF742F905463868800705D479
:10338000FDF73CF9401B0228F7D96FE06069396905
:1033900021F4FE0141EA00403861207800074FD453
:1033A0002078400765D42078800600F19580A66AD1
:1033B000002E00F0E081B8F1180F40F0C2804846BE
:1033C000D9F80010012ED9F80C0036D0E26A01F0CD
:1033D0000303934231D1C1F30521226B91422CD1D9
:1033E0000146626B6FF35F21013A914225D1A26BD6
:1033F000C0F34621013A91421FD1E26BC0F306416E
:10340000013A914219D1216CC0F30660013988421A
:1034100013D1E06CD9F81010C1F3CC01814200F057
:10342000AA8101F016FCFDF7E9F80546FDF7E6F87C
:10343000A842FBD001F09AFB9BE10120BDE8F88394
:10344000D9F8C800A1694E46002958D040F08060E4
:10345000C6F8C800FDF7D2F80546D6F8C800000146
:103460009ED4FDF7CBF8401B0228F6D90320BDE817
:10347000F883C34EB859C0070FD1B85940F00100C6
:10348000B851FDF7BBF80546B859C00705D1FDF79F
:10349000B5F801F06EFAF7D9F4E6A068002800F05C
:1034A000C9808528494600F0E980052800F0EB80B6
:1034B000012800F0EE80D1F8C80020F00100C1F82A
:1034C000C800D1F8C80020F00400C1F8C800D1F845
:1034D000C80020F08000E0E03868616A00295BD015
:1034E00040F4805001F0FCF90546386880043FF54F
:1034F0005EAFFDF783F801F03CFAF6D9C2E620F0A2
:103500008060C6F8C800FDF779F805464846D9F846
:10351000C80000017FF544AFFDF770F801F029FA0B
:10352000F4D9AFE620F4807001F0DAF90546386886
:1035300080057FF5B6AEFDF761F801F01AFAF6D90D
:10354000A0E6386820F0807001F0CAF90546022E26
:1035500009D13868800140F1B480FDF74FF801F0DF
:1035600008FAF6D98EE63868800140F1FE80FDF752
:1035700045F801F0FEF9F6D984E621F0010001F0EA
:10358000AFF90546386880077FF507AFFDF736F8D5
:1035900001F0EFF9F6D975E620F4805001F0A0F9BA
:1035A0000546386880047FF502AFFDF727F801F083
:1035B000E0F9F6D966E600BF000C0244280C02448C
:1035C000386820F480303860386820F48010386023
:1035D000386820F4802001F083F9054638688003BC
:1035E0007FF58AAEFDF70AF8411B03206429F5D95F
:1035F00048E6386840F480203860386840F480102D
:1036000006E0386840F480203860386820F4801084
:103610003860386840F4803001F062F90546386857
:1036200080033FF569AEFCF7E9FF411B03206429E5
:10363000F5D927E6D9F8C80020F00100C9F8C8007C
:10364000D9F8C80020F08000C9F8C800D9F8C8002F
:1036500020F00400C9F8C800FCF7D0FF054641F28D
:1036600088364846D9F8C80080077FF59CAEFCF73D
:10367000C5FF411B0320B142F3D903E601F0B9FABB
:1036800040F0800003E001F0B4FA20F08000C1F8BF
:10369000C800D1F8C80040F00100C1F8C800FCF72C
:1036A000ADFF054641F288364846D9F8C800800784
:1036B0003FF579AEFCF7A2FF411B0320B142F3D9DD
:1036C000E0E5D9F8000043F6037104F12C058843C6
:1036D0002ECD0843591E40EA02206FF35F214FF4BC
:1036E000FE02C9F800004FF47E4000EB452080B296
:1036F0000844E16B02EB01414FF0FE4201F4FE0190
:103700000844216C02EB016101F0FE410844C9F854
:103710000C0001F09EFA01F029FAC9F80000606C73
:10372000D9F8001021F00C010843C9F80000D9F8BD
:103730000000A16C20F020000843C9F80000D9F86F
:10374000000040F48030C9F80000386840F0807014
:1037500001F0C6F80446386880010CD4FCF74EFF2F
:10376000011B03200229F6D98CE5D9F80000054990
:103770000840C9F800000020BDE8F88304000020DC
:1037800024FCFFFFFCFFF8FF10B591E81D0010437B
:10379000094A106044EA030288691043074A5060EE
:1037A00008691368496923F0FF13184340EA014090
:1037B0001060002010BD00BF1C780044207C004435
:1037C00070B515480468200CC4F30423C4F34236D2
:1037D00004F03F05C8708D704B700E70CAB91B099C
:1037E000220A2D0904F00F0443EA830302F00F02BA
:1037F00045EA850502EB430204EB45044A7000F0FC
:103800000F02C0B28C70000900EB800002EB400098
:10381000C870002070BD00BF0478004470B5A8488F
:1038200083684B60C36803F44073B3F5807F2BD08B
:1038300003696FF3DF338B600468C4F38050C4F313
:10384000062304F07F058D70C870C4F305404B70EB
:103850000870CAB91B09220A2D090009260C04F0B8
:103860000F0403EB830302F00F0205EB850540EA2A
:10387000800002EB430204EB45044A7006F00F029D
:103880008C7002EB40000870002070BDB0B370B5C2
:10389000044690F82D0028B9002084F82C0020461A
:1038A00000F040F80220974D84F82D002868C006EB
:1038B00032D4CA20A8615320A86101F092F8D0B98F
:1038C000E8681749261D0840E8604ECEA0693143DC
:1038D0000843E9680843E86043EA02406860D4E9C5
:1038E00009012A6822F4F852104308432860204650
:1038F00001F08AFB20B1FF21A96170BD0120704752
:10390000D4E907126069EB6823F060431A4311435E
:103910000843E860FF20A86101F07FFA70BD00BF96
:10392000BFFF8FFBB0B5C4B0044602A84FF480714E
:103930004FF480750830FCF730FD206860498842FC
:1039400019D100203F9503904FF00070029002A81B
:10395000FEF7F8FC08B1FCF786FD0848816C41F4DD
:1039600000418164016841F400110160006800F4C5
:1039700000100190019844B0B0BD00BFA80C0244F3
:103980002DE9F04100F0B8FF42D084F82D0001206D
:1039900084F82C004AB16978EB782878AA78090273
:1039A000460341EA03418D1816E06E78DFF8148172
:1039B000F00642BF06F0EF0000F10A066E70E878EC
:1039C000C04707463046C047000240EA0746A8788D
:1039D000C0470644287845030E4FCA20386053205C
:1039E000386000F0FEFF10B1FF2139600DE045EABC
:1039F000060020F0C00047F8200C204601F004FB30
:103A0000FF21396008B901F008FA002184F82C1070
:103A1000BDE8F081247800442DE9F84300F06CFF04
:103A20004CD084F82D00264FCA201646786201201B
:103A300084F82C005320786200F0D3FF10B1FF21EE
:103A4000796238E0F86800F44070B0F5807F2AD0E1
:103A5000B8696EB1400659BF0020E870E87880056B
:103A60006A782978AB78120242EA0141CE1812E056
:103A7000400659BF0026EE70E8788605DFF84490CE
:103A80002878C84780466878C847000240EA084856
:103A9000A878C847404430430B4908403860B869AB
:103AA00020F48020B861204601F0AEFAFF2179624F
:103AB00008B901F0B2F9002184F82C10BDE8F883B0
:103AC00000780044914F00087F7F7F0070B50D4E55
:103AD0000446306820F020003060FCF78FFD05467A
:103AE000306880060CD4FCF789FD401BB0F57A7F66
:103AF000F6D9306880065EBF032084F82D0070BDC3
:103B0000002070BD0C7800442DE9FF4104460320DD
:103B10000D4684F83000A06B03280AD14FF0805086
:103B20002168626BA94E10436063606BF0B18E63D5
:103B300022E0002D54D0B5F5004FEFD0B5F5804F01
:103B400060D101F06FF980015FD402A9204601F035
:103B50008DFD0028E4D19DF80E0040074FD501F0FF
:103B600032F80028DCD12068022161E03848814227
:103B700013D001F05AF86063012500F0B4FF28B1BA
:103B8000216801258E63616B08436063012084F81E
:103B90003000284604B0BDE8F0814FF480000021D9
:103BA000FDF7C0FD0028E4D0D4E904C7294BD4E9CF
:103BB0000112B0FBF3FE774541D29846A36DB3F5F1
:103BC000007F3CD0B3F5807F22D1234B9FB39E462C
:103BD0007B00B0FBF3F3434588BFB0FBFEF72EE05C
:103BE00001F020F9800110D402A9204601F03EFD29
:103BF00000287FF495AF9DF80E00C00711D14FF05B
:103C000080608DE74FF000608AE74FF4006087E73F
:103C1000A7B17B00B0FBF3F0104B984288BF77460A
:103C20000DE000F0D0FF00287FF47AAF206800217B
:103C300001F04AFA74E7B0FBF3F700E0774620683A
:103C40002B46CDE900C701F0E1FC002595E700BF58
:103C50000080004680F0FA0200E1F50540787D0121
:103C6000B0B5D0E91742836BA50F0D70C4F383651F
:103C70004D70C4F301658D70250CCD70250A0D7152
:103C80004C71140DCC80C2F303440C72C2F3C034E7
:103C90004C72C2F380348C72C2F34034CC72C2F3E3
:103CA00000340C730024012B4C7330D0002B40F0F7
:103CB000818040F6FC73012503EA8202436E42EAEA
:103CC00093720A61426EC2F3C2630B75C2F3026360
:103CD0004B75C2F342538B75C2F38243CB75C2F36B
:103CE000C2330B764FF4007343650B690C7E04F00E
:103CF000070401330234A34083640C7A04F00F04F8
:103D000005FA04F4C464640A6343036512E0B0F87E
:103D1000663002F03F0243EA02424FF480630A61D8
:103D20004FF400724265C2640A6903EB82220265A5
:103D30008264426EC2F380334B76C2F3C61302F044
:103D40007F028B76CA76806EC20FC0F300430A777B
:103D5000C0F341724A77C0F382628A77C0F383521C
:103D6000CA77C0F3405281F82020002281F8212038
:103D700081F82230C0F3C03381F82330C0F38033A0
:103D800081F82430C0F3403381F82530C0F300338C
:103D900081F82630C0F3812381F82730C0F3012356
:103DA000C0B2400881F8283081F82900012081F84C
:103DB0002A0009E00168744A8A630122416B41F0DC
:103DC0008051416380F830201046B0BDFF0FE01FE6
:103DD000B0B500F138053CCD81E83C00826C0A6149
:103DE000C26C4A61026D406DC86100208A61B0BD3D
:103DF00010B504460068616C090401F026FA20B190
:103E0000616B08436063002010BD00F0EDFDC0F35E
:103E1000432010BD2DE9F04397B0044690F83000E0
:103E2000032801D1012540E00D46FCF7E7FB804661
:103E300000F0DAFD8001544E22D42068402101F0C8
:103E400030F90146C8B900F0BEFE0146A8B901200C
:103E500016900020159002201490602013904020AE
:103E600012904FF0FF301190206811A901F07AFAFA
:103E7000206801F012FA0146D8B1606B606301E07E
:103E80004FF40061206801258663626B1143616312
:103E900084F830504FF4007101F003F928B1216823
:103EA00001258E63606384F83050284617B0BDE862
:103EB000F08301AFB1462068426B416B12F4957FED
:103EC00014D1080409D50026202E04D000F0EEFD00
:103ED000B8510436F8E737444E46FCF78FFBA0EBA9
:103EE00008004FF000410130E5D1CBE7090715D4B8
:103EF000416B890714D4406B800613D42068416B52
:103F0000C90411D501F097FB01C7FCF777FBA0EBC3
:103F100008004FF000410130F0D1B3E70821B1E7CC
:103F20000221AFE72021ADE718496FF0FF0C816354
:103F300001AE4ECECFB2BF092F70C1F340176F70E4
:103F40000CEA112747EA1161698011BAF2B269607F
:103F5000190A2B726972C3F30351A9720CEA134157
:103F60001144A981C6F38521A973C6F30121E97320
:103F70001109297406F00F014E4669749DF8171057
:103F8000A974002586E700BFFF0FE01F3A0F001855
:103F900020B3B0B586B0044690F8300020B90020B8
:103FA0002076204600F04AF9042084F830002046AC
:103FB00000F03AF8D8B901A92046FFF72BFFB0B9B5
:103FC000A26B9DF814009DF81510012A08D1084332
:103FD0000CBF4FF480704FF4007002E00120704776
:103FE0000020A065E1682046FFF78EFD10B101209A
:103FF00006B0B0BDFCF702FB05462046FFF7F8FE11
:10400000042809D0FCF7FAFA401B0130F5D14FF033
:1040100000406063032002E000206063E062012151
:1040200084F83010E4E700002DE9F0418EB004463A
:104030000068B649884205D001214FF0006084F83D
:10404000301046E04FF4800000214FF00008FDF7EB
:1040500069FB0028F0D0754F05460021002200239F
:10406000B0FBF7F62068CDE9008601F0CFFA2068B2
:1040700001F0DCFABD4224BF7000B5FBF0F56C48DE
:10408000B0FBF5F00130FCF7F1F900200390206857
:1040900001F02AF8C0B9206801F04CF8B0F1004FE7
:1040A00009D10020E063206801F01EF860B9E06BE0
:1040B000012802D012E00120E0632068002100F016
:1040C000CDFF58B14FF08050012184F83010626B61
:1040D0001043606308460EB0BDE8F08100204FF643
:1040E000FE76554D0021039AB24213D891B920684B
:1040F000002100F0B3FF0028E6D12068294600F037
:10410000C0FF0028DED100F06FFC0399013103915C
:10411000C10FE8E703994FF6FF72914202D34FF0C7
:104120008070D1E7C0F38070A0630020ADF80A0072
:10413000FCF764FA0546206801F060FA18B3A06B3A
:10414000032823D12068042101F05CFA000D2064CB
:1041500003A92046FFF784FD0028B3D1616C2068D5
:10416000090401F01EF80028AED100F0BCFC0028C4
:1041700056D02168BB4A8A63616B084301216063A2
:1041800084F83010A6E74FF080609DE7206801F0CA
:104190001BF8002898D1DFF89C8020680021C047D8
:1041A000E06620680421C047206720680821C047D6
:1041B000606720680C21C047A067A06B0328C1D0AE
:1041C0000DF10A0641F287372068314601F050F8B8
:1041D00000287FF479AFFCF711FA401BB84221D8D0
:1041E000BDF80A100029EFD0A06B0328AAD06164A3
:1041F0002068090400F0FEFF00287FF465AF206806
:104200000021C047E06520680421C047206620687F
:104210000821C047606620680C21C047A06691E76E
:10422000002157E74FF000404EE700BF00350C007B
:104230001021010005560008000010C12DE9F043CF
:10424000C9B0044644A81421FCF7A7F802A8D82155
:104250003030FCF7A2F820682C49884253D14FF443
:104260008001002002274FF00408029140210390B2
:10427000CDE90B007C20CDF828800997CDE90777A0
:10428000CDE9047735914FF4802106900D9102A875
:10429000FEF758F808B1FCF7E6F81D484FF00C0996
:1042A00001261C4C816841F400618160816801F441
:1042B000006101910199016841F004010160016808
:1042C00001F0040101910199016841F008010160C8
:1042D000006800F0080001900198CDE94779CDE928
:1042E00045764FF4F850449044AD20462946FCF7FB
:1042F000CDF846A82946CDE9448780E8C00204F5F8
:104300008060FCF7C3F849B0BDE8F0830080004648
:104310008C0C0244000802422DE9F04786B0984612
:1043200015460E460446FCF769F94EB1824600F088
:10433000B2FB08D100F0E8FB0DD900F003FD05E069
:1043400000F073FC02E0606B40F0005060630120FD
:1043500006B0BDE8F08703204FF0020984F8300072
:104360002068A76BC162CDE904119021CDF80C90B3
:1043700002914FF0FF3100914FEA482101916946C7
:1043800000F0F0FF00F000FB18BF6D02B8F1020F63
:1043900005D32946C4F82C9000F0DDFE02E001218F
:1043A00000F042FB38B121688B4A8A63616B084395
:1043B00000F0B5FBCCE7DDF83890019D2068416B3B
:1043C00011F4957F1DD1406B00040BD5202D09D32E
:1043D0000027202F04D000F069FBF0510437F8E7E4
:1043E0003E44203DFCF70AF9A0EB0A004845E5D31E
:1043F000206879498163606B40F0004000F01DFB4C
:10440000A6E700F031FB0ED311F480710BD0A16B45
:10441000032908D000F056FF0146206819B16E4A02
:104420008263606BC3E7416B090709D4416B89075D
:104430000CD4416B89060FD4684900F0CBFC87E7A8
:1044400065498163606B40F00800B1E762498163B0
:10445000606B40F00200ABE75F498163606B40F046
:104460002000A5E7FF0FE01F2DE9F04F87B0984629
:1044700015460F460446FCF7C1F84FB1824600F0DE
:104480000AFB08D100F040FB0DD900F05BFC05E011
:1044900000F0CBFB02E0606B40F000506063012055
:1044A00007B0BDE8F08F032084F830002068A66BC9
:1044B000C1620691CDE90411902103914FF0FF31C3
:1044C00001914FEA4821029101A900F04BFF2068B9
:1044D000012EC16841F04001C16018BF6D02B8F102
:1044E000020F03D3202100F096FA04E01021E162CC
:1044F000294600F024FF38B12168374A8A63616B8E
:10450000084300F00CFBCBE7DDF84090DDF808B085
:104510006D462068416B11F48D7F2BD1406B4004B8
:104520001BD5BBF1200F18D30026202E07EB060069
:1045300010D0B95D0091427841EA02210091827861
:1045400041EA02410091C07841EA006000F0F3FACC
:104550000436EAE7ABF1200B0746FCF74FF8A0EB77
:104560000A004845D5D320681B498163606B00F081
:1045700064FA95E700F078FA0ED311F480710BD04D
:10458000A16B032908D000F09DFE0146206819B1F7
:10459000114A8263606BB3E7416B090709D4416B31
:1045A00089070CD4416BC9060FD40C4900F012FCEA
:1045B00076E709498163606B40F00800A1E706498E
:1045C0008163606B40F002009BE703498163606B8D
:1045D00040F0100095E700BFFF0FE01F3A0F0018F2
:1045E000042821D8DFE800F0030D10201B0020482C
:1045F000016821F0040101601E48016821F00C01EE
:1046000011E01B48012201E019480222016821F053
:10461000040101601748016862F3830103E0144854
:10462000016841F004010160704700BF411E002095
:10463000B0EB116F1CBF012070470D4A51609060B4
:10464000116841F003011160704700BF084800681D
:10465000400744BF042070470648006800F00C0182
:10466000081FB0FA80F04009082908BF02207047EF
:1046700010E000E0E40C0244FEE7000081B01348C3
:10468000016841F004010160016801F0040100913A
:104690000099016841F080010160016801F080012A
:1046A00000910099016841F001010160016801F089
:1046B000010100910099016841F008010160006862
:1046C00000F008000090009801B070478C0C024484
:1046D00080B5FBF797FF18B1BDE88040FBF7C3BE7C
:1046E00080BD0000B0B58EB007A818210430FBF7DC
:1046F00054FE02A81421FBF750FE1E4800244FF080
:1047000080411D4DFF227F230194C0E90844C0E988
:104710000054C0E90232C0E90444C0E90641FFF791
:10472000B5F808B1FBF79FFE12480C94CDE90A4496
:10473000079407A9FFF728F808B1FBF794FE0020BB
:104740000022CDE905008DF80A00ADF808000948FF
:1047500002A9FFF761F908B1FBF785FE07480022BF
:104760000190044801A9FFF70BF908B1FBF77BFEA4
:104770000EB0B0BD140900200078004401070118F4
:10478000B0B50B4808214FF400324FF480430024A9
:10479000084DC0E90054C0E90243C0E90421FFF715
:1047A000F7FB18B1BDE8B040FBF75DBEB0BD00BF80
:1047B00044090020008000462DE9F04389B02F48CD
:1047C0004FF4A051002200234FF0000903F0D2FF64
:1047D00000BB08A901204FF0010801F08BF9044645
:1047E00007A9002001F086F9054606A801F0C4F9E2
:1047F000064605A801F0B2F9DDE90572DDE90731E9
:10480000CDE9006202AA82E8810220462A4603F02E
:1048100017FD18B1FF2009B0BDE8F083184C194806
:10482000C4E902081848254645F8040F01F018FAB3
:10483000206101F00BFA164A164B1449164E174F19
:10484000C4E90F3204F11403616400218022C4E939
:104850000D7607C30320216201F04AF9206003208E
:10486000002101F065F903460D480E4922680095C4
:1048700003F024F9002818BFFF20CCE7C809002066
:10488000F0000020475C0008455C0008755C0008EB
:10489000BD5C0008495C0008C15C0008795C000848
:1048A00074000020756B000880B50A4802220021C0
:1048B0004272C2710822C0F80A10C0F80D100271CD
:1048C000054A0260FCF7CCFC18B1BDE88040FBF75C
:1048D000CABD80BD3406002000600140FEE7FEE74F
:1048E0003860FBF78BBE04F1300000F017BB0168A5
:1048F00041F00101016070470D4690F82C1004460C
:1049000002200129704704464FF480500590002092
:1049100004904FF480700390704752F8310020F0FB
:104920007C4042F8310052F8310040F0004042F83B
:10493000310002EBC100426822F07C4242604268D2
:1049400042F0004270478020D4F8C460A07328462B
:1049500003F000BA2046294600967047DBF818306D
:10496000584614214A4618470138B0FA80F04009E9
:1049700080BD411B03200229704704F1080000F0AC
:1049800095BA204600F05ABE2068012FC16841F058
:104990004001C16070479BF8001052F8310080B2AE
:1049A00042F8310052F8310042F8310002EBC10008
:1049B000426892B2426042687047016400207047CA
:1049C000C1EBC10004EBC000704702200921122294
:1049D00003F0C2BEB8EE411A00EE021AB7EE000AAA
:1049E0007047204600F0E6BA2068002100F00ABEB9
:1049F000D9F8B01000254A467047D9F8B410002500
:104A00004A46704731EE001A00EE102AB8EE400A0E
:104A100082EE000A7047E162294600F07DBCD9F8B9
:104A2000BC1000254A467047E162294600F0A6BB4B
:104A3000D9F8B81000254A4670476063012084F811
:104A400030000020E06203207047F06A20F0100080
:104A5000F062306C8843216A40EAC1003064F06A39
:104A600040F01000F0627047C168B8F1020F21F009
:104A70004001C160416B7047306B20F01000306323
:104A8000B06C8843216A40EAC100B064306B40F0EA
:104A900010003063704794F83000012870470843D5
:104AA000C9F8B00070473060FBF7A8BD206800F07F
:104AB000C2BD515C01F01F01C84080BD01EE102A4B
:104AC000B8EE411A31EE021A80EE011ABCEEC11A9C
:104AD00011EE102A70474FF480504FF4807105900A
:104AE00000200391704720684FF4007100F0D9BA9C
:104AF000002084F8940210BD2046002301F0EABF94
:104B00000843C9F8B4007047002108EB0500616351
:104B1000226D904270470843C9F8BC00704760633B
:104B20000120002184F83000E1627047D9F8C010FC
:104B300000254A46704729460090206800F090BD45
:104B40000843C9F8B8007047A069F16A21F00C0168
:104B50000843F0627047A069316B21F00C010843F3
:104B6000306370470843C9F8C0007047E06CC0006C
:104B7000C9F81000D9F8000040F010007047C3F3E6
:104B8000C103B8EE411A24FA03F300EE021AB7EE9D
:104B9000000A02EE102A31EE000A01EE103AB8EED9
:104BA000422AB8EE411A81EE021A704704464FF4C9
:104BB00080500590002004904FF4807003900620F0
:104BC000CDE901107047616C2068090400F046BA15
:104BD000012084F894022068704750F822104CF2AB
:104BE00080032140194340F822107047204601F00D
:104BF000F9BFD1F8C80040F00400C1F8C800D1F8EE
:104C0000C8007047D9F80000494640F40030C9F8A0
:104C10000000704704464FF4805005900020049037
:104C20004FF48070039008207047606B40F0006084
:104C3000704748F2C00351F820202A401A4341F837
:104C400020207047204480F87410D4F8A400002875
:104C50007047D9F8000020F01000C9F80000704734
:104C6000F06A43F60371884394E82E000843591E06
:104C700040EA02206FF35F214FF4FE02F0624FF42E
:104C80007E4000EB452080B20844216902EB0141DF
:104C90004FF0FE4201F4FE010844616902EB01613C
:104CA00001F0FE41084470470160002070479BF806
:104CB000001022684D464CF2800552F8213003EA7C
:104CC00009032B4342F82130704751F8302092B24B
:104CD00041F8302051F830207047396A702202EADA
:104CE0001112216991427047306B43F6037188437A
:104CF00094E82E000843591E40EA02206FF35F211A
:104D00004FF4FE0230634FF47E4000EB452080B24A
:104D10000844216902EB01414FF0FE4201F4FE011B
:104D20000844616902EB016101F0FE4108447047EB
:104D30004FF4FA520968B1FBF2F141F28832514363
:104D4000C9437047606B40F000707047307821684D
:104D500005F5405351F820201A404AF280035A408A
:104D600041F820207047DC1C4FF0FF3513F00300A2
:104D70004FEA940370473A6A22F4E06242EA011172
:104D800039627047D0F8F00000F00202002070474E
:104D9000044690F894020128704768692A69002344
:104DA000C119286A696190427047B7EE002AC1F3C1
:104DB000066101EE101AB8EE411A31EE021A80EEC9
:104DC000010ABCEEC00A10EE101A70470490CDE93B
:104DD000010170478163012084F830000020704792
:104DE000B1F1FF3F00EB800104EBC1017047426865
:104DF00092B242604268114341607047C6F3CC06EC
:104E000005F0100504F003046FF35F23754300EE13
:104E1000105A032CB8EE400A7047012084F82D0088
:104E20000020704700200021CDE90200206800F03A
:104E3000E9BB4A6892B24A604A68104348607047CA
:104E400081B00A210091009911B100990139F9E767
:104E5000034951F83000C0F3094001B0704700BF6A
:104E60000064014081B00A210091009911B10099BC
:104E70000139F9E70B4951F83000C0F3094001B09E
:104E8000704700BF81B00A210091009911B10099CB
:104E90000139F9E7034951F83000C0F3094001B086
:104EA000704700BF046401407047000070B5374E82
:104EB0000446306820F08060FFF7F5FD0546306855
:104EC000000105D5FBF79AFB401B0228F7D922E029
:104ED000FFF7C6FEF063FFF737FEE069F16A21F0E5
:104EE00020010843F062606AF16A08434FF6F871E6
:104EF000F062FFF7AAFD306840F08060FFF7D3FD55
:104F000004463068000144BF002070BDFBF776FB0B
:104F1000001B0328F5D3032070BD00BF70B51B4EE6
:104F20000446306820F08050FFF7BDFD054630682C
:104F3000800005D5FBF762FB401B0228F7D922E071
:104F4000FFF7D2FE7064FFF706FEE069316B21F0D7
:104F5000200108433063606A316B08434FF6F871F3
:104F60003063FFF789FD306840F08050FFF79BFD0C
:104F700004463068800044BF002070BDFBF73EFB54
:104F8000001B0328F5D3032070BD00BF000C0244B2
:104F90000928014698BF09210A22B1FBF2F202EB6F
:104FA0008203A1EB4303591A084440EA0210C0B23D
:104FB000704700002DE9F041124E804630684006EF
:104FC0001CD430680027012440F080003060FBF7DB
:104FD00015FB05463068E14341EA9010C0070ED149
:104FE000FBF70CFB401BB0F57A7FF3D93068400625
:104FF00005D40327002488F82D70EBE70027F8B2CA
:10500000BDE8F0810C780044B0B5134D044655F866
:105010000C0C20F0800045F80C0C2868800607D4A2
:105020002046FEF753FD78B1032084F82D00B0BD73
:10503000286820F0200028602046FEF747FD28B1B0
:10504000032084F82D0002E00020B0BD0020296874
:1050500041F020012960B0BD1878004410B586B039
:10506000FFF751FC3720CDE9011001A9FFF789FCBA
:105070002046372141F2883206B0BDE8104000F0EA
:1050800083B910B586B0FFF73EFC2920CDE90110A9
:1050900001A9FFF776FC204606B0BDE8104000F0FD
:1050A00027BA10B586B0FFF72EFC1020CDE901100D
:1050B00001A9FFF766FC2046102141F2883206B0B4
:1050C000BDE8104000F060B910B586B0FFF76EFD86
:1050D00001A9FFF756FC2046062141F2883206B0AE
:1050E000BDE8104000F050B910B586B0044600206D
:1050F000CDE90300CDE901004FF48050059001A9EE
:10510000FFF73FFCF8484FF4FA510068B0FBF1F0AC
:1051100041F288314843C043013006D2616B090631
:10512000FAD5F248A063002001E04FF0004006B03D
:1051300010BD00BF10B586B0FFF76CFD02904FF4B4
:10514000D570019001A9FFF71CFC204606B0BDE810
:10515000104000F02BBA10B586B0FFF7D4FB122038
:10516000CDE9011001A9FFF70CFC2046122141F204
:10517000883206B0BDE8104000F006B910B586B020
:10518000FFF7C1FB1120CDE9011001A9FFF7F9FBE1
:105190002046112141F2883206B0BDE8104000F0EF
:1051A000F3B810B586B0FFF7AEFB0720CDE90110CC
:1051B00001A9FFF7E6FB2046072141F2883206B03D
:1051C000BDE8104000F0E0B810B586B004464FF4DA
:1051D00080504FF440710590002003910221FFF7A9
:1051E000F5FD01A9FFF7CDFB204606B0BDE8104054
:1051F00000F058B910B586B004464FF480500590C1
:10520000002004904FF4407003900920CDE9011074
:1052100001A9FFF7B6FB204606B0BDE8104000F03C
:1052200041B910B586B00446FFF755FC3321FFF7AE
:10523000CDFD01A9FFF7A5FB2046332141F28832BD
:1052400006B0BDE8104000F09FB810B586B0FFF77B
:105250005AFB0D20CDE9011001A9FFF792FB204672
:105260000D2141F2883206B0BDE8104000F08CB844
:10527000B0B586B00C460546FFF72DFC0321FFF7BD
:10528000A5FD01A9284600F0D9F9284603212246A8
:1052900006B0BDE8B04000F047B910B586B004468E
:1052A000FFF719FC0D21FFF791FD01A9FFF769FB3D
:1052B00020460D2141F2883206B0BDE8104000F0D2
:1052C00063B8000010B586B00446C0684FF4807122
:1052D00040F08000E060E06820F04000E0604FF4C3
:1052E0008050039105900020049001900C200290C2
:1052F00001A9FFF746FB074A20460C2100F044F8BD
:10530000E16821F08001E160B0F1007108BF08465A
:1053100006B010BD00E1F50510B586B0FFF7F3FA51
:105320001920CDE9011001A9FFF72BFB2046192117
:1053300041F2883206B0BDE8104000F025B810B543
:1053400086B0FFF7E0FA1820CDE9011001A9FFF7B8
:1053500018FB2046182141F2883206B0BDE8104003
:1053600000F012B8B0B591E83C004262836245EAB1
:1053700004030A6949691A431143C26A22F0FF0211
:105380001143C1620020B0BD10B503469A484FF4E6
:10539000FA540068B0FBF4F05043421C3F48013A15
:1053A00004BF4FF0004010BD5C6B0442F7D014F412
:1053B0000054F4D15A6B520742BF0420986310BDC9
:1053C0005A6BD2071EBF0120986310BD80309863CE
:1053D0001869C0B288421CBF012010BD586930490D
:1053E000084204BF002010BD002854D4410044BF2F
:1053F000402010BD810044BF802010BDC10044BFCB
:105400004FF4807010BD010144BF4FF4007010BD17
:10541000410144BF4FF4806010BDC10144BF4FF44F
:10542000006010BD010244BF4FF4805010BD410226
:1054300044BF4FF4005010BD810244BF4FF4804080
:1054400010BDC10244BF4FF4004010BD410344BF32
:105450004FF4003010BD810344BF4FF4802010BDD5
:10546000C10344BF4FF4002010BD010444BF4FF4FA
:10547000801010BD410444BF4FF4001010BD8104E2
:1054800044BF4FF4800010BD00074FF4000058BF28
:105490004FF4803010BD4FF0007010BD450020006B
:1054A00008E0FFFD54497346FFF742FC9E46013178
:1054B00010D2426B12F0450FF9D012F40052F6D11F
:1054C000416B490709D4416BC90708D1364981634B
:1054D000002106E04FF0004103E0042100E001213B
:1054E00081630846704700BF3C000020C5002000D3
:1054F00041497346FFF71CFC9E46013110D2426BB6
:1055000012F0450FF9D012F40052F6D1416B04228B
:1055100011F0040104BFC522C0F22002826301E041
:105520004FF000410846704710B5334B4FF4FA5422
:105530001B68B3FBF4F341F288346343DB4301336C
:105540001FD2446B14F0450FF9D014F40054F6D177
:10555000436B5B0718D4436BDB0717D10369DBB2DE
:105560008B4217D110498163406910F4604F13D00A
:10557000410415D44FF48051000458BF4FF48031DA
:1055800006E04FF0004103E0042100E001218163C7
:10559000084610BD0121FBE7000C00211080F7E751
:1055A0004FF40051F4E700BFC500200012497346D4
:1055B000FFF7BEFB9E46013113D2426B12F0450F3E
:1055C000F9D012F40052F6D1416B49070CD4416B6B
:1055D000C9070CD1416B49064FF000010AD54022A2
:1055E00007E04FF0004105E00422042101E0012220
:1055F00001218263084670473C000020006800F0EB
:10560000030070470844406970470000B0B511437B
:10561000049A4468044D19432C401143059A1143E0
:10562000214341600020B0BD002CC0FF016841F063
:105630000301FFF739BBD0F88000704770B591E8DF
:105640003C00064E234382602B43C2680969324006
:1056500019431143C160002070BD00BFC0E0FEFFD0
:105660000968C0F880100020704700002DE9F0475D
:1056700086B00C460546FAF7C1FF064628680821A1
:10568000FFF70FFD002855D1696C28680904FFF762
:10569000E5FC00284ED101206946059000200490C9
:1056A0000220039030200290082001904FF0FF303C
:1056B00000902868FFF756FE2868FFF7B2FDC8BBC8
:1056C000002740F22A5A4FF000084FF000092968DD
:1056D0004A6B486B12EA0A0F14D100F400203843D9
:1056E00008D10846FFF7A7FF80462868FFF7A3FF09
:1056F00081460127FAF782FF801B01304FF00040FE
:10570000E5D117E000070FD4486B80070ED4486B33
:1057100080060DD40948886398FA88F099FA89F1CF
:10572000C4E90010002005E0082002E0022000E0AB
:105730002020886306B0BDE8F08700BF3A0F00184C
:105740007047FAF769BF0000B0B59CB0002018217F
:10575000CDE90D00CDE90B0002A8FAF71EFE274C9B
:10576000206840F030002060206800F03000019098
:10577000019860680007FCD5FBF794FED4F8E004BC
:105780000221032561F3C400C4F8E0044FF4805003
:105790000024CDE91611CDE9121511900120CDE9B3
:1057A0001A440A904FF48030099035200890082060
:1057B000CDE918107D20CDE91410202010904FF471
:1057C00080700F9008A8FDF733FD08B172B6FEE7B0
:1057D0001F20CDE90354CDE905440794052102902B
:1057E00002A8FDF769FB08B172B6FEE70448022281
:1057F000016862F3051101601CB0B0BD10080244DD
:105800000020024010B51E4801221F4CD0F8801025
:1058100041F47001C0F880101A490A600022CA6180
:105820000A620B6823400B60184B8A62CA620A63E3
:105830004B638A63CB630A644B648A640B6823F40A
:1058400080230B600A654FF0006101601048C16859
:105850004A0F062A04D801F06041B1F1404F0ED141
:105860000169C9071FBF0B4901600B49016001694C
:1058700041F002010161016941F00101016110BDC6
:1058800008ED00E0000C0244E3EAE2EA80020101D4
:105890000C2002403B2A19087F6E5D4CA0B1B0B5C8
:1058A00000230446257815B101340133FAE7DCB250
:1058B000148001220B70037823B1D4B2013001327D
:1058C0000B55F8E7BDE8B040704700002DE9FE4FEA
:1058D00006466F488B4600230292C1F80E004FF433
:1058E000007088816B4888604FF0804048606A494A
:1058F000CBF800101221012AC6E9481311460DD138
:10590000CBF8160065480121CBF812001C20ABF83B
:105910001A10C6F820014FF4007000E04020604CDF
:10592000019006F10C004FF05C0A4FF0010E4FF0B1
:1059300000080090B8F1030F00F09580706802280D
:105940009CBFB168022902D908F10108F2E714F8F6
:105950000820002AF8D000FB0A652B4653F8187F70
:10596000002F7BD1D6F82071C3F800E0029B28619C
:105970002A7333700BEB070970B9FA2389F80830E2
:10598000484BC9F8043040F20923C9F80030D6F872
:1059900024310933C6F82431032A5FD100222023A1
:1059A00021B1F55801395C332A44F9E7DDF800A04C
:1059B0005C21019F00FB01A0022180F84E20C0E97C
:1059C000041E304681213A4600F070F8304601212D
:1059D0003A4600F06BF8D6F8241140F2094270689C
:1059E00040F2075C304D4FF0000E21F809205C2298
:1059F00001EB090300FB02A090F84E20A3F809C0B8
:105A0000C3F805500769458B007E83F80FE083F8E3
:105A100003E01F7102279A70D872A3F80D505C2220
:105A20001F73A3F810C0DF74706800FB02A04FF072
:105A30005C0A827F008C83F816E04FF0010E98829A
:105A400001F117009A74C6F82401A9F8020099F828
:105A50000400013089F80400D6E901010131013068
:105A6000C6E9010170E7B068012802D90120EF21E1
:105A700004E02078022808D1002002218BF80600DB
:105A800002208BF804108BF805005846BDE8FE8F05
:105A90000102030183041057120100020A060002EA
:105AA00040000020000100C008065000F0B5436827
:105AB0005C24002603FB040404F12805E469B442D5
:105AC00005D02F7817B106350136F8E734465C2546
:105AD00003FB050004EB440300EB43000123C284F5
