:020000040800F2
:10000000F02F002021030008A15B0008B55800086C
:100010009D5B0008CD090008A575000833030008A2
:10002000000000000000000000000000215E000849
:10003000A50B000800000000A55B0008255E000875
:100040003D0300083D0300083D0300083D03000890
:100050003D0300083D0300083D0300083D03000880
:100060003D0300083D0300083D0300083D03000870
:100070003D0300083D0300083D0300083D03000860
:100080003D0300083D0300083D0300083D03000850
:100090003D0300083D0300083D0300083D03000840
:1000A0003D0300083D0300083D030008B10B0008B4
:1000B0003D0300083D0300083D0300083D03000820
:1000C0003D0300083D0300083D0300083D03000810
:1000D000000000003D0300083D0300083D03000848
:1000E0003D0300083D0300083D0300083D030008F0
:1000F0003D0300083D0300083D0300083D030008E0
:100100003D0300083D0300083D0300083D030008CF
:100110003D0300083D0300083D0300083D030008BF
:100120003D0300083D0300083D0300083D030008AF
:100130003D0300083D0300083D0300083D0300089F
:100140003D0300083D0300083D0300083D0300088F
:100150003D0300083D0300083D0300083D0300087F
:100160003D0300083D030008056800083D03000842
:100170003D0300083D0300083D0300083D0300085F
:100180003D0300083D0300083D0300083D0300084F
:100190003D0300083D0300083D0300083D0300083F
:1001A0003D0300083D0300083D0300083D0300082F
:1001B0003D0300083D0300083D0300083D0300081F
:1001C0003D0300083D0300083D0300083D0300080F
:1001D0003D0300083D030008000000003D03000847
:1001E0003D0300083D03000800000000000000007F
:1001F0003D03000800000000000000003D0300086F
:100200003D0300083D0300083D0300080000000016
:10021000000000003D030008000000003D0300084E
:100220003D0300083D0300083D0300083D030008AE
:100230003D0300083D0300083D0300083D0300089E
:100240003D0300083D0300083D03000800F002F8EC
:1002500000F057F814A696E8000CB244B344DA450F
:1002600001D100F04EF8BAE80F000FA696E8300072
:10027000A5EB040504EB0607AAEB0704A7F10107A9
:100280004FEA15154FEA3414A4F10104AC4201D32E
:1002900000F037F813F0010F18BFFB1A43F0010309
:1002A00000F001F8DBE71847CC980000EC9800005C
:1002B000103A24BF78C878C1FAD8520724BF30C892
:1002C00030C144BF04680C607047000070470000F4
:1002D0000023002400250026103A28BF78C1FBD84F
:1002E000520728BF30C148BF0B607047642900F037
:1002F0007780002070471FB509F01DFC1FBD10B5A9
:1003000010BD00F02EFA1146FFF7F5FF09F0F0FAE4
:1003100000F04CFA03B4FFF7F2FF03BC00F054FA0C
:100320000A4880470A480047FEE7FEE7FEE7FEE787
:10033000FEE7FEE7FEE7FEE7FEE7FEE7FEE700007A
:1003400004480549054A064B70470000355F000820
:100350004D020008F00D0020F02F0020F00F0020CB
:10036000F00F00200FB41CB5084B06AA7B44694669
:100370000090059800F0BBF904460020694600F0A3
:10038000C9F920461CBC5DF814FB0000A503000061
:1003900070B5044685690068C10601D5302600E0C5
:1003A0002026C00707D070BDD4E901213046904710
:1003B000206A401C20626D1EF6D570BD70B50446E3
:1003C00085690078C00707D170BDD4E901212020DC
:1003D0009047206A401C20626D1EF6D570BD00005B
:1003E0002DE9F0410646002410687529314616A50E
:1003F00010D0AFF30080002802DA404213A507E0D6
:1004000031688A0701D512A502E0490704D511A574
:10041000012401E0AFF3008000210A2206F1240745
:1004200009E0B0FBF2FCB0FBF2F302FB1C00303041
:1004300078541846491C0028F3D123462A463046F2
:10044000BDE8F04100F0F5B8000000002D0000000C
:100450002B000000200000002DE9F05F89460446D3
:100460004FF0000ADFF824B1FB44C0F820A020467A
:10047000E168884700287DD0252806D0D4E90121ED
:100480009047206A401C2062F1E700255F46204625
:10049000E16888472028064607DB312E05D2B819C7
:1004A00010F8200C08B10543F1E7A80701D525F0A5
:1004B0000405C4F81CA00027C4F818A02A2E09D0EF
:1004C000304609F031FB38B304EB8708303EC8F8FA
:1004D000186019E059F8041B204604EB870291616B
:1004E000E1688847012F064618D1E069002820DA24
:1004F00025F020051DE0D8F8180000EB800006EB81
:1005000040003038C8F818002046E16888470646A1
:1005100009F00AFB0028EED1012F0AD02E2E08D1B7
:100520002046E16888477F1C0646022F45F02005DB
:10053000C4DBA069002803DA404245F00105A06150
:10054000E80701D025F01005A6B1A6F14100192851
:1005500002D8203645F400654A46314620462560DB
:100560004D46FFF7C3FE60B1012807D0ED1D25F011
:10057000070000E007E000F1080978E705F1040949
:1005800075E730467AE7206ABDE8F09FE496000000
:1005900010B5431C02E010F8011B71B18107FAD1BC
:1005A0004FF0013202C88C1A8C4314EAC211F9D000
:1005B000C01A0A0603D0C01E10BDC01A10BD0A041E
:1005C00001D0801E10BD0902FCD0401E10BD02F0FB
:1005D000FF0343EA032242EA024200F0A2B84FF0CE
:1005E000000200B5134694469646203922BFA0E883
:1005F0000C50A0E80C50B1F12001BFF4F7AF09078F
:1006000028BFA0E80C5048BF0CC05DF804EB89007F
:1006100028BF40F8042B08BF704748BF20F8022BC2
:1006200011F0804F18BF00F8012B704770477047DA
:1006300070472DE9F0470D4699469246044600F171
:1006400024080168880604D5E06921F010012160C2
:1006500000E00120A84201DD471B00E00027A1695E
:100660007A1902EB0900081AA0612078C00602D4AA
:100670002046FFF78DFE002608E0D4E901211AF894
:1006800006009047206A401C761C20624E45F4DB31
:100690002078C0060AD52046FFF77AFE06E0D4E9A6
:1006A000012130209047206A401C2062381EA7F1AB
:1006B0000107F4DC07E0D4E9012118F805009047B0
:1006C000206A401C2062281EA5F10105F3DC2046AB
:1006D000FFF774FE2078000602D50220BDE8F087FF
:1006E0000120FBE701694A1C02610878704700B5E8
:1006F0008FB0CDE901310021059105497944CDE95B
:10070000031011466846FFF7A7FE0FB000BD0000BA
:10071000E5FFFFFF0A6802F8010B0A6070474FF01F
:1007200000020429C0F0128010F0030C3FF459AF0E
:10073000CCF1040CBCF1020F18BF00F8012BA8BFCC
:1007400020F8022BA1EB0C01FFF74BBF5FEAC17C45
:1007500024BF00F8012B00F8012B48BF00F8012B43
:100760007047754600F02CF8AE46050069465346C2
:1007700020F00700854618B020B5FFF7E1FDBDE881
:1007800020404FF000064FF000074FF000084FF0F8
:10079000000BAC46ACE8C009ACE8C009ACE8C00945
:1007A000ACE8C00921F007018D46704710B504463A
:1007B000AFF300802046BDE81040FFF7ABBD00005E
:1007C000004870475800002001491820ABBEFEE7E2
:1007D00026000200704700000146C06D836D826DE7
:1007E00013F0500F08D0D20648BF00F033BC006DA4
:1007F000826E0846104700BF42F4007181650168AF
:100800000B68CA681B0703D4910707D500F01EBC0C
:1008100012F4406FFAD1C9688904F7D4816D21F4CC
:1008200080718165816DC90448BF00F00FBC816D86
:1008300041F00101816500F009BC0000C06D816DCF
:1008400041F040018165C16D41F00401C16500F0D6
:1008500001BC0000C06D00F0FBBB0000B0B501683A
:1008600004468A688868C0074FF0000033D012F051
:10087000020218BFB0BD886800F00D00012821D128
:1008800088684FF6C072C7F6FF7210400230886069
:100890000320086001F042FD21688968C90704BF90
:1008A0000020B0BD054604E08068C00704BF0020FA
:1008B000B0BD01F033FD411B20680329F4D38168EA
:1008C000C907F1D0A06D40F01000A065E06D40F0C8
:1008D0000100E0650120B0BD70B582B00446002083
:1008E000019021688A68D20711D14FF6C076C7F609
:1008F000FF76886806F17F0210420BD0A06D40F0B1
:100900001000A065E06D40F00100E065012002B03C
:1009100070BD00BF8868304040F00100886048F238
:100920000830C4F202200068000221D401F0F6FC75
:1009300021680A68D20717D1054602E00868C00797
:1009400012D18868C00704D18868304040F00100A7
:10095000886001F0E3FC401B21680328EED308689F
:10096000C007EBD1CAE700BF002002B070BD00BFD6
:1009700040F20800C2F20000006842F663518009AC
:10098000C0F23E51A0FB01018809022101EB4000A9
:10099000019001980028C9D0019801380190019870
:1009A0000028C3D001980138019001980028BDD0DB
:1009B00001980138019001980028B7D001980138BA
:1009C000019001980028E7D1B0E70000FEE70000A1
:1009D0002DE9F043D2F800C0D0F808E0002953D048
:1009E000BEF1000F4FF0000464D04FF6FC7311EA23
:1009F00003094FF000074FF0000300F0B5800568D1
:100A00004FF6FC732B40BEF1020F4FF0010455D39B
:100A10004B4553D04FF6FF7425EA040605274FF6E1
:100A2000FC7800BF46EA030454F82C50FC1E7445C1
:100A300005EA08054ED24D454CD046EA050353F869
:100A40002C30BC1E744503EA08031AD24B4518D05B
:100A500046EA030454F82C507C1E744505EA080548
:100A600038D24D4536D046EA050353F82C30774549
:100A700003EA080307F1040402D24B452746D1D10B
:100A8000043C1F462B466FE0BEF1000F1AD00468ED
:100A90004FF6FC75BEF1010304EA050716D04FF6C8
:100AA000FF75AC43AEF10205032D03F0030813D22A
:100AB00030E000BF0027002356E000BF1F460023A0
:100AC00052E000BF00230027002456E00124002349
:100AD00053E000BF2F4647E023F003054FF6FC76B6
:100AE00044EA070353F82C30043D03EA060343EAC3
:100AF000040353F82C3003EA060343EA040353F8D3
:100B00002C3003EA060344EA030757F82C7007EA7F
:100B10000607E5D13D46B8F1000F24D044EA0503AD
:100B200053F82C604FF6FC73B8F1010F06EA030688
:100B300004D1744637462B4616E000BF44EA06054A
:100B400055F82C50B8F1020F03EA050304D174469E
:100B50001F46334608E000BF1C4354F82C404FF6B4
:100B6000FC7504EA0507744639B14FF6FC7631404E
:100B70008F421CBF0120BDE8F0834088946043EAA7
:100B8000004147EA00435160D36053F82C1029B16B
:100B90004FF6FC7300041940084310610020BDE8C3
:100BA000F08300007047000072B600BFFEE700004F
:100BB00040F26060C2F2000001F0B6B9B0B582B098
:100BC00004460020019094F85400012802BF02203E
:100BD00002B0B0BD012084F8540020460D46FFF756
:100BE0003DFEA16D10B141F0100149E041F2021249
:100BF00091430231A16521684FF6C0738A68C3F63C
:100C0000FF731A4005F080431A4402F100434FF28B
:100C1000FF72C2F2C3528B608B68B3F1FF3F2BDCD3
:100C2000019B01330193019B93421DD88B68B3F163
:100C3000FF3F21DC019B01330193019B934213D8B9
:100C40008B68B3F1FF3F17DC019B01330193019BDC
:100C5000934209D88B68B3F1FF3F0DDC019B013350
:100C60000193019B9342D7D9A06D40F0100020F072
:100C70000201012004E000BFA16D012262F3010125
:100C8000A165002184F8541002B0B0BDF0B581B068
:100C90000022009290F85420012A03D10221084634
:100CA00001B0F0BD0123076880F85430BB685B07D2
:100CB00044D40B6848F2083C012BC4F2022C09D141
:100CC0004FF6C056CFF6FF765CF8065045F00105AA
:100CD0004CF806504E681F22C6F3012506F01F0689
:100CE00007EB8505C3F384632C6BB24024EA020250
:100CF000B3401A432A63BA68BB6802F0040203F0E7
:100D00000803D21840F0BB800A6807F11403C2F34D
:100D1000406404268D6806EAD25E53F82460C2F36C
:100D200004540722A240B5F1004F26EA02060BD177
:100D300043F80E601A6842F000430DE0816D41F007
:100D40002001816501217BE105FA04F2324343F879
:100D50000E201A6822F000437B61D1E90435FE6859
:100D6000042B5FD13A6E3A6E0B68C2F3846293FA39
:100D7000A3F4B4FA84F5C3F3846E6FF31F532C46C7
:100D8000002B08BF7446A2424FF6FF74C0F20F0456
:100D90000CD13A6E22F000423A660A6802EA040375
:100DA000C2F3846E92FAA2F2B2FA82F57A6E7A6E89
:100DB000002BC2F384622E4608BF7646B2420CD1A5
:100DC0007A6E22F000427A660A6802EA0403C2F3ED
:100DD000846E92FAA2F2B2FA82F5BA6EBA6E002B63
:100DE000C2F384622E4608BF7646B2420CD1BA6E78
:100DF00022F00042BA660A6802EA0403C2F3846E73
:100E000092FAA2F2B2FA82F5FA6EFA6E002B08BFDD
:100E10007546C2F38462AA4231D1FA6E22F00042D2
:100E2000FA662CE0062202EA960207F16004D1F885
:100E300000E054F8236005FA02F24FF20005C0F218
:100E4000FF3535400EF0F84632432A4342F0004267
:100E500044F823200A698B6954F8226026F08076D2
:100E6000334344F822300A690B7F54F82260012B87
:100E700026F0007608BF06F1007644F82260BA68D2
:100E80000C68D20752D1CA68D7F8B06023466FF316
:100E90001F5326EA030E4FF6FF7602F01805C0F244
:100EA0000F0626FA05F5254045EA0E060025C4F290
:100EB0007F05AA42C7F8B06038D18BB194FAA4F28A
:100EC000B2FA82F2013202F01E03092B02F01F0374
:100ED0000FD8012203EB43069A4042EA065315E07D
:100EE000012202EB946202F01E030A2B02F01F03A0
:100EF000EFD303EB43020025CFF62065012605EB77
:100F0000025206FA03F31A4342F00073C3F340623D
:100F1000C3F3045307EB82028E68556907249C4093
:100F2000A54306FA03F32B4353610C680021C8F272
:100F300008010C4200F08380DCF800500021CCF264
:100F400021318C4205F0E07108BF15F4000215D084
:100F50000022C4F2293294424AD10022B2EB116F2E
:100F600046D1ACF50272974269D1DCF8002022F03C
:100F7000E072114341F080715FE000BFACF5427256
:100F800097425CD1DCF8002022F0E072114341F47A
:100F90000001CCF8001040F20801C2F2000109681B
:100FA00042F663528909C0F23E52A1FB0212910936
:100FB000022202EB41010091009900293FD00099E3
:100FC000013900910099D1B300990139009100993C
:100FD000A9B3009901390091009981B300990139B1
:100FE0000091009900294FF00001E8D128E000BFEE
:100FF0000022CCF25272944208BF15F4800211D044
:10100000ACF542718F424FF0000119D00022C4F2BA
:101010005A72944214D1D7F8C81041F00101C7F8B0
:10102000C8100CE0ACF54272974208D1DCF8002001
:1010300022F0E072114341F48001CCF8001000214D
:10104000002280F85420084601B0F0BD704700002F
:101050007047000070470000B0B582B00446002021
:1010600001904CB1A06D58B121688868800012D4FD
:101070008868C00019D54CE0012002B0B0BD00BFA7
:10108000204600F0F3F80020E06584F85400216861
:1010900088688000ECD588684FF6C072C5F6FF728C
:1010A000104088608868C00033D44FF6C0728868EA
:1010B000C5F6FF7202F18052104000F18050886046
:1010C00040F20800C2F20000006842F66352800954
:1010D000C0F23E52A0FB02029009022202EB400045
:1010E00001900198A8B100BF0198013801900198C2
:1010F00078B1019801380190019850B101980138F8
:101100000190019828B101980138019001980028B8
:10111000EAD18868C00009D4A06D40F01000A06535
:10112000E06D40F00100E065012000E000208A68E9
:10113000A36D02F0040203F01003D218A26D7BD15C
:1011400022F481720232A2658A68D2071AD148F26B
:10115000083C4FF600534FF60062C4F2022CCFF663
:10116000FF73CFF6FF725CF803305CF802201A437D
:10117000D20707D16268DCF8003023F47C131A43ED
:10118000CCF8002094F819E0A36BD4E902C243EA3A
:101190004E331A4394F8203042EA0C0242EA034EDE
:1011A000012B08D1D4F824C00023CFF6FE7303EB43
:1011B0004C434EEA030EA36A3BB1D4F82CC003F4AF
:1011C000787343EA0C034EEA030ECB6844F207023D
:1011D000CFF6F0721A4042EA0E02CA600A69236B27
:1011E00022F040621A430A618A6812072DD494F8EB
:1011F0003430227E5B0094F83CC043EA823ECB68E8
:1012000044F2020223EA020242EA0E02CA600A69BA
:10121000BCF1010F16D140F2FD7322EA030CD4E9B0
:101220001032D4E912E543EA0C031A4342EA0E02F3
:101230002A4342F0010207E042F010010120A165BB
:1012400002B0B0BD22F001020A6122690B6B012AD3
:1012500023F00F0202BFE369013B1A430A63A16D49
:10126000012262F30101A16502B0B0BD70B5E0B02A
:10127000044645A808306421FFF7B1F902A83030D0
:10128000D821FFF7ACF9206848F20011C4F202211E
:10129000884201D060B070BD4FF40010029003206E
:1012A000049002207D21CDE906100421002509913A
:1012B000082105900890CDE90A154FF48021369059
:1012C00002A803950C950D9102F0AEFA002818BF04
:1012D000FFF76AFC40F68C40C4F20240016840F21D
:1012E000BC0641F4806101600068C2F2000600F4AF
:1012F000806001900198212045900120CDE94605AC
:10130000CDE94855CDE94A504FF480315695CDE9A5
:101310005055CDE95255549506F118054C91CDE93B
:101320004E0045A8294600F0EBF8002818BFFFF74B
:101330003BFC304600212A4600F0D2FB002818BFB3
:10134000FFF732FC40F2BC00C2F2000000F0D4FC17
:10135000002818BFFFF728FC40F260605021C2F25D
:101360000000C4F2020101604FF4800100228123D9
:10137000C0E90E12C0E91022836400F025FA0028AB
:1013800018BFFFF711FC40F26065C2F2000540F2A1
:10139000BC01C2F20001284600F036FC002818BF4C
:1013A000FFF702FC284610212565EC6500F09EFD44
:1013B000002818BFFFF7F8FB60B070BD2DE9F041C1
:1013C0009CB048F200170446C4F20227D7F808027E
:1013D000236816469B685A0704D4884694F854102C
:1013E000012903D102201CB0BDE8F08100F01F05E7
:1013F0000120092D84F8540008D8A84040F221218A
:10140000084203D02046FFF767FA38B1002084F87D
:10141000540001201CB0BDE8F08100BF2168A06D20
:1014200040F60172904300F58070A0650DB1B9429D
:1014300003D0A06D20F48010A065A06D40F2D97398
:10144000C0044FF0000044BFE06D20F00600E065EE
:10145000206DC0F6000340F65507036640F63D03D5
:10146000C0F60007C0F600030022C0E919731C2370
:101470000B6084F854204A6842F010024A60CA683F
:1014800042F00102CA6090F85020120606D4826928
:10149000012A15D0022A08BFB60012E0406F0028CA
:1014A000B7D001680029B4D001A800F0E1F8002805
:1014B000AFD10798012815D0022808BFB60012E066
:1014C000760040314246334600F006FE21684FF672
:1014D000C0738A68C7F6FF731A4004328A601CB072
:1014E000BDE8F0817600206D2268416F40320968C6
:1014F000C1E90262C1F8108000F08EFCE6E700004E
:1015000000284FF0010218BF002901D11046704792
:10151000B0B5D0E904C2C369D0F818E01A43C36B70
:101520001A4342EA0C0242EA0E020A6003789B0662
:1015300016D5D0E909C34FF07C75D0F82CE0846B48
:1015400005EB03534FF47C7505EB0C1503F07C732E
:1015500044EA0E0405F47C7523432B431A430A60C6
:101560004268036B40F2FF252A401A434A60C36871
:10157000B3F5007F05D0B3F5806F04D10578AD06D3
:1015800001D51A434A60436B1A434A60436C43B126
:10159000856C046C05F03F0544EA05452A431A436F
:1015A0004A60B0F8683040F2000C8B600278C0F2FC
:1015B000FF7C920722D5C56C4FF080540CEB05459B
:1015C00005EA0C052B438B60056D04EAD5054FF049
:1015D00000542B448B60456D04EA95054FF0804420
:1015E0002B448B60856D04EA55052B448B60C56DDB
:1015F000B5F1FF3FDCBF03F100438B60036ECB60AE
:10160000436E0B6103689D0702D44FF4A06028E08D
:10161000036D0CF1C052002B48BF5B426FF35F3388
:101620004B61456D2C04002D48BF05FB02F42240A0
:101630001A434A61836D0CF17845002B48BF5B4229
:101640009AB28A61C36D1C04002B48BF03FB05F4EA
:1016500022438A61036898074FF4E06058BF4FF453
:10166000A060184300220862BDE8B04010467047F1
:1016700000284FF0010218BF002901D11046704721
:1016800091F820C042F20002C0F800C00B68C0F61A
:10169000004203F0080303610B6803F40023436175
:1016A0000B6803F0030383610B6803F44033C361E9
:1016B0000B68C3F30513013343620B68C3F305538F
:1016C000013383620B6803F04023C3620B681A4046
:1016D00082630A6802F4C052C2634B689A0509D457
:1016E000DAB242604A79520754BF00224FF4806256
:1016F00003E000BF4FF400724260C2604A685FEAD4
:101700008C7302F4006282604A6802F44042026410
:101710004A6802F040724264CA8802F03F02826462
:101720004A6802F0404202630A8982660CD40122B0
:10173000C264CA680266096900224166C0E91422CF
:10174000C0E916221046704780B54A896FF3DF2240
:101750000132C264CA6802660A6942664B696FF365
:101760005F330365B1F816C06FF35F3CC0F854C037
:10177000D1F808E05FEACE0203D55A420265D1F8FB
:1017800008E05FEA8E0244BFCCF100024265B1F886
:1017900018E0C0F858E08A694FEA124CC0F85CC003
:1017A0008A68530003D5CEF1000282658A68B2F1DF
:1017B000FF3FBDE88040C4BF00207047CCF100016E
:1017C000C165002070470000B0B5044600F0A6FDDA
:1017D000002C04BF0120B0BD00210546206884F81C
:1017E0004C10022184F85410416941F00601416116
:1017F00020684169C9070BD000F090FD401B052807
:10180000F6D9012003221021A16584F85420B0BD2F
:10181000D4E90E124F23C5F20203984242EA0102B4
:1018200040F24F31C5F202011CDC41F24F03C4F219
:101830000203984232DC40F24F23C4F20203984282
:101840005ADC40F24F13C4F20203984200F3948032
:101850005023C4F20203984200F0E880D023C4F27F
:101860000203E1E041F24F03C5F2020398422DDC8E
:1018700040F24F23C5F2020398424FDC40F24F136F
:10188000C5F20203984200F383805023C5F202039D
:10189000984200F0CB80D023C4E000BF41F24F2338
:1018A000C4F20203984245DC41F24F13C4F2020332
:1018B000984277DC41F25003C4F20203984200F0F0
:1018C000B58041F2D003C4F20203ADE041F24F23F0
:1018D000C5F2020398423FDC41F24F13C5F2020306
:1018E00098426BDC41F25003C5F20203984200F0CB
:1018F0009D8041F2D00395E040F24F33C4F20203E1
:10190000984265DC40F25023C4F20203984200F092
:101910008D8040F2D023C4F2020385E0884263DC6C
:1019200040F25023C5F20203984200F07F8040F25B
:10193000D02377E041F24F33C4F2020398425DDCDA
:1019400041F25023C4F2020398426FD041F2D023F7
:10195000C4F2020368E000BF41F24F33C5F2020354
:10196000984257DC41F25023C5F2020398425DD001
:1019700041F2D02356E000BF40F25013C4F20203FC
:10198000984253D040F2D013C4F202034CE000BF9F
:1019900040F25013C5F20203984247D040F2D013F0
:1019A00040E000BF41F25013C4F2020398423DD020
:1019B00041F2D013C4F2020336E000BF41F25013EB
:1019C000C5F20203984231D041F2D0132AE000BFA1
:1019D00040F25033C4F20203984227D040F2D03391
:1019E000C4F2020320E000BF40F25033C5F202030C
:1019F00098421BD040F2D03314E000BF41F2503384
:101A0000C4F20203984211D041F2D033C4F202036F
:101A10000AE000BF41F2D033C5F20203984205D07C
:101A200041F25033C5F20203984201D1236C1A43AC
:101A30004369884223F4430342EA030242614FF0C0
:101A400000020264636C43648264C264026511DC58
:101A500041F24F31C4F2020188421BDC40F25031A6
:101A6000C4F2020188422DD040F2D031C4F202010A
:101A700026E000BF41F24F31C5F20201884215DC79
:101A800040F25031C5F2020188421BD040F2D03101
:101A900014E000BF41F25031C4F20201884211D07B
:101AA00041F2D031C4F202010AE000BF41F2D0316C
:101AB000C5F20201884205D041F25031C5F202015F
:101AC000884202D10021416581650021C167A06C77
:101AD000012220650020A16584F85420B0BD0000DB
:101AE0002DE9F04186B0044600284FF001001CBFEC
:101AF0001546002A02D106B0BDE8F08160690128D0
:101B000006D104202061012006B0BDE8F08100BFAD
:101B10000E462068294332460143002E08BF2A465C
:101B2000002818BF02465140B1F5803F08D268B185
:101B300090F820106EB196F820209142E1D108E093
:101B400005202061012006B0BDE8F0812EB196F895
:101B5000201095F820209142D3D102212173002139
:101B60002161296A00274A08CFF6010762F3596705
:101B700001F0020162F39A6701F1050870B1BEB18C
:101B800001AA20463146CDF80480FEF721FFB8B106
:101B900006202061012006B0BDE8F081E6B14FF6D5
:101BA000FC7028403843266046F82800022023E0D5
:101BB0004FF6FC710840384345F82800256019E0CD
:101BC0000398A16888420BD1606868B14FF6FC7138
:101BD0000840384306E000BF256001200CE000BF4C
:101BE00056F8280045F828004FF6FC702840384386
:101BF00046F82800A0680130A06000200121206183
:101C0000217306B0BDE8F08100284FF0010218BF33
:101C1000002901D11046704790F8542090F85430B4
:101C2000022B18BF052A07D140218165002180F8C9
:101C30004C100120704700BF0A7B022A04D1012208
:101C40000A611046704700BF026840F24F33C5F288
:101C500002039A4210DC41F24F33C4F202039A426B
:101C60001ADC40F25033C4F202039A422CD040F204
:101C7000D033C4F2020325E041F24F33C5F2020330
:101C80009A4215DC40F25033C5F202039A421BD04F
:101C900040F2D03314E000BF41F25033C4F20203EB
:101CA0009A4211D041F2D033C4F202030AE000BFDD
:101CB00041F25033C5F202039A4205D041F2D033CB
:101CC000C5F202039A420DD1036D4A68812B03D1FC
:101CD00022B1416700207047002AFAD00420086131
:101CE000012070470A6892F820209207ECD5032063
:101CF0000861012070470000002804BF01207047E0
:101D000002683AB1416849B1914204BF002070476E
:101D100007E000BF022101610120704741690129EC
:101D200004D1042101610120704700BF2DE9F04179
:101D30000221017300210161136A40F2000C5F0867
:101D4000CFF6010C67F3596C866867F39A6C03F061
:101D500002034FF6FC770533002E02EA070E49D046
:101D6000012E01D1764645E04FF6FF74751E023E06
:101D700022EA0404032E05F0030801D276461EE091
:101D800025F003074FF6FC75764600BF264356F84C
:101D90002360043F06EA050646EA040656F8236077
:101DA00006EA050646EA040656F8236006EA050632
:101DB00046EA040656F8236006EA0506E6D1B8F1BD
:101DC000000F17D046EA040555F823604FF6FC755E
:101DD000B8F1010F06EA05060CD0264356F8236039
:101DE000B8F1020F06EA05061EBF344354F823403B
:101DF00004EA05064FF6FF7422EA040434434CEA71
:101E00000E074260012244F8237001610273BDE8AD
:101E1000F04108467047000000285BD0436F002B5C
:101E200058D080B590F85410D0F800E00129DEF8C1
:101E300014C004D002294FD11CF480314CD090F84A
:101E4000541001293AD190F84C1001294FF00201A9
:101E50003BD0012280F84C2080F8541019730021E7
:101E600081651961DEF8141041F4BA41CEF81410FE
:101E7000416E29B1DEF8141041F40071CEF814104F
:101E8000006F28B1DEF8140040F40050CEF81400C2
:101E900018680022016ACFF60102490861F359620D
:101EA00061F39A624FF6FF7120EA0101CEF800104B
:101EB0004FF6FC7108401044CEF87C00DEF81400A8
:101EC000002140F00100CEF81400BDE88040084633
:101ED000704700BF0120704740218165002180F8D4
:101EE0004C100121BDE8804008467047024600289A
:101EF0004FF0010008BF7047CB0612D5136840F6BB
:101F0000FF7223EA020203F57B63C3F3C41301F0FB
:101F1000110198401129516814BF21EA00000843BB
:101F2000506000207047000010B5044600680C2285
:101F3000034600F57B6162F30B03C1F3C4111A6819
:101F400022FA01F1C90700F0C5800169490544BFC3
:101F500041695FEA415147D40169090544BF4169BC
:101F60005FEA015148D40169C90444BF41695FEA8D
:101F7000C14149D40169490444BF41695FEA414113
:101F80004AD40169890544BF41695FEA81514BD454
:101F90000169890444BF41695FEA81414ED4016906
:101FA000C90544BF41695FEAC15163D4A06D0028EF
:101FB00000F090802068416941F0020141610120F8
:101FC00084F8540094F85010090644BF616F0873F8
:101FD000A16E0020002984F84C0008BF10BD2046E7
:101FE000BDE81040084700BF4FF48061C160A16D9B
:101FF00041F00101A165AFE74FF40061C160A16D3F
:1020000041F00201A165AEE74FF48051C160A16DBE
:1020100041F00401A165ADE74FF48041C160A16DBD
:1020200041F00801A165ACE74FF40071C160616E39
:102030000029ADD0204688472068A9E74FF4005119
:10204000C16094F8541004291ED1416921F4005153
:102050004161416941F002014161012184F854105C
:1020600094F85020120603D5626F11730021816429
:10207000E16EAEE794F85010090611D4816CD1B925
:1020800004F1540115E000BF052184F85410216FBC
:1020900000293FF484AF2046884720687FE700BFCF
:1020A000C16F41B9816C31B9012184F85410616F5D
:1020B0000C3101220A704FF44071C160216E002082
:1020C000002984F84C001CBF20468847A06D0028DA
:1020D0007FF470AF10BD000000284ED090F84CC0C7
:1020E000BCF1010F04BF022070474FF0010C80F8D3
:1020F0004CC090F854C0BCF1010F39D110B54FF06D
:10210000020C80F854C04FF0000CC0F858C0D0F852
:1021100000C0D0F864E0DCF84840BEF1000FC3EA2C
:102120000403CCF848304FF4FE43CCF80C30CCF824
:102130004C10CCF85020DCF8141041F4BA41CCF823
:10214000141005D0DCF8141041F40071CCF8141010
:10215000006F28B1DCF8140040F40050CCF81400F3
:10216000DCF8140040F00100CCF81400002010BD91
:1021700040218165002180F84C100120704700004B
:102180000A68002A08BF70472DE9F04F81B047F672
:102190007F73C0F22F0303EA90234FF000084FF043
:1021A000010900260027002500930DE0032A55D1E0
:1021B0000A68013532FA05F307F1040706F1020651
:1021C00008F1080800F0928009FA05FC12EA0C0AEE
:1021D000EED04A6842F01004122C1CD16FF00302BA
:1021E00002EA5502534600EB020BDBF820E0D1F87F
:1021F00010A007F01C040F2202FA04F90AF00F02E3
:102200002EEA090EA24042EA0E02CBF820204A68CC
:102210004FF001099A4604680323B3406FEA030EA6
:1022200024EA030302F00304B4402343122A0360A8
:1022300014D809FA02F313F0061FB7D08368CC68EC
:1022400003EA0E03B440234383604368140923EA7E
:102250000C03AC402343032A4360A9D0C3688C68B5
:1022600003EA0E03B4402343D200C360A0D542F278
:10227000000E25F00302C4F2024E7244D2F860C090
:1022800008F018040F23A3402CEA030C009B03FA68
:1022900004F44CEA04031366DEF800C04B684CEA11
:1022A0000A04DA0258BF2CEA0A04CEF80040DEF82D
:1022B00004C09A024CEA0A0458BF2CEA0A04CEF879
:1022C0000440DEF884C09A034CEA0A0458BF2CEAA2
:1022D0000A04CEF88440DEF88020DB0342EA0A04D8
:1022E00058BF22EA0A04CEF8804061E701B0BDE899
:1022F000F04F70470069084018BF01207047000088
:10230000426902EA0103914341EA03418161704756
:102310001823002A08BF2823C150704740F6E81050
:10232000C2F200000068704740F20041C4F20301AD
:10233000086840F0010200200A60704740F2000087
:1023400040F6E811C2F20000C2F2000100780A680B
:10235000104408607047000080B5032000F0B8F812
:1023600002F0DAFB40F62041C4F20241096849F666
:10237000613201F00F01C0F60002515CC84040F22A
:102380000801C2F200010860042003F02DFA0F20BA
:1023900000F008F800281CBF012080BD00F058F8AC
:1023A000002080BD70B540F20006C2F20006317810
:1023B000E1B304464EF21000CEF200000068400780
:1023C00010D403F05FFA02281CD0012822D078BB79
:1023D00040F20800C2F20000006831784FF4FA526F
:1023E00007E000BF40F20800C2F2000000684FF4AE
:1023F0007A72B2FBF1F1B0FBF1F003F031FAA8B957
:102400001BE000BF30784FF47A71B1FBF0F04FF46D
:10241000004106E030784FF47A71B1FBF0F04FF4F0
:10242000FA41B1FBF0F003F01BFA30B1012070BDAE
:10243000002003F015FA0028F8D14FF0FF302146B4
:102440000022002500F018F82846746070BD0000D6
:1024500070470000002848BF704700F01F010122AC
:10246000C0F34A1002FA01F14EF20012CEF200025D
:1024700042F820107047000010B54EF60C5CCEF20A
:10248000000CDCF80030C3F3022E8EF00704042C9D
:1024900028BF0424BEF103034FF0FF3E38BF0023E2
:1024A0000EFA04F4A14399400EFA03F39A43114340
:1024B00000F00F0200F160430901043A03F56443A0
:1024C0006244002848BF02F10C03197010BD0000DF
:1024D0004EF60C51CEF200010A684FF6FF031A4087
:1024E00060F30A2242F0806040F0FD70086070479F
:1024F00001220168C0F8D422002280F8CC22486D65
:1025000040F001004865486D40F0020200204A6535
:10251000704700007047000080B501F0070C0CEB1D
:102520008C0C01EB810E00EBCC0C09060CF1140CA9
:1025300000EBCE0058BF00F5AA7C3AB10121CCF8DF
:10254000083000208CF80C1080BD00BFACF80630BD
:10255000002100208CF80C1080BD0000F0B581B087
:1025600040F2F052C2F20002126811F00F03D26979
:1025700003EB4303044602EB830303F1640608BF45
:10258000161D3568D1B1AA6E686C6AB100284FF08B
:10259000000009D0A866E86420460022002300F06D
:1025A000ADF901B0F0BD00BF0021696502212963CA
:1025B0007168A86441F0080070601DE0307A01285D
:1025C0001AD1AF6B204600210022002300F04AF907
:1025D000E86CF969884211D92A6C431A8B4228BFEA
:1025E0000B460A44C61A397D2A642046EE6401B0BF
:1025F000BDE8F04000F082B901B0F0BDA86E01283E
:102600000AD1397D204600220023002400F076F90B
:10261000AC6601B0F0BD00BF0020696C68650220A7
:102620002863A9647068E96D40F0080000297060B3
:102630001CBF05F1300088470420307201B0F0BDA6
:10264000F0B581B040F2F052C2F20002126801F01F
:102650000F03D26903EB430302EB8306044675685C
:1026600061B1204600F0C4F8A8640020B168686534
:102670000220286341F00800B0601DE0307B022892
:102680001AD1AF6B2046002100F0B2F8D5E9111243
:10269000034610448842A86410D927206865B068B2
:1026A000E96D40F00800B06031B105F1300001B0D3
:1026B000BDE8F040084700BF01B0F0BD0CD0F8699C
:1026C000834209D1286C397DC21820462A6401B0A2
:1026D000BDE8F04000F0C6B8B06840F44070CBE709
:1026E00001F0070202EB82024BB200EBC20200686B
:1026F00002F5AA71002B48BF02F1140104F032BEAA
:1027000010B5044601F007004AB200EB8001B2F1B7
:10271000FF3F04EBC10205DD02F5AA71002382F838
:10272000553103E0012302F11401537594F894220A
:102730000870012A04BF022010BD2068012284F81D
:10274000942204F065F8002084F8940210BD000083
:10275000B0B50446007901F00F02824284BF012027
:10276000B0BD48B2B0F1FF3F01F0070000EB8001BF
:1027700004EBC10206DD02F5AA71002382F855318F
:1027800004E000BF012302F11401537594F8942270
:102790000025012A8D70087004BF0220B0BD20689A
:1027A000012284F8942204F0D7F8284684F8945241
:1027B000B0BD000010B5044690F89402012804BF93
:1027C000022010BD4BB220680122B3F1FF3F84F814
:1027D000942205DD04F008FE002084F8940210BD68
:1027E00001F0070104F002FE002084F8940210BDFD
:1027F00001F0070101EB810100EBC100D0F870018D
:102800007047000070B54CB2064601F0070000EBBF
:102810008001B4F1FF3F07DD06EBC104002504F59C
:10282000AA7184F8555106E006EBC10C01240CF1A5
:1028300014018CF8154008700A61022BCB7004BF9C
:102840000020087196F89402012804BF022070BD90
:102850003068012286F8942203F07CFE002086F87E
:10286000940270BD10B501F0070C0CEB8C01002434
:1028700000EBC10E00680EF5AA71CEF86821CEF803
:102880006C31CEF870418EF855418EF854C104F089
:10289000BDF8002010BD000010B50279044601F01B
:1028A0000700904284BF012010BD4AB2B2F1FF3F41
:1028B0000ADD01EB8101002304EBC10202F5AA71DC
:1028C00082F8553108E000BF00EB8001012304EBE2
:1028D000C10202F11401537594F894320122012BC4
:1028E0008A70087004BF022010BD206884F894220A
:1028F00004F072F8002084F8940210BD80B501F055
:10290000070C0CEB8C014FF0000E00EBC1010068CE
:1029100001F814CF4FF0010C01F1140781F824C025
:1029200087E80C400B6281F801C004F06FF80020CA
:1029300080BD00002DE9F04F83B00446006804F02C
:1029400057FD010416D4410524D441043ED481042A
:1029500040D4C10442D4010500F1D284010600F143
:10296000E384810500F1F084C00554D520684FF65A
:10297000FF624DE02068416C09044CD546F2004BE3
:1029800040F60F7A04F52771C4F2010BC0F2FF7A0A
:10299000019165E020684FF6FF32416C11404164BF
:1029A000204600F041FE94F89402012833D0012023
:1029B000002584F8940265742068002104F082FDEB
:1029C00084F8945203B0BDE8F08F00BF20684BF646
:1029D000FF721DE020684DF6FF7219E02068016C5F
:1029E00021F004010164016C21F00801016494F8F4
:1029F000CC02012806D1002084F8CC022046002118
:102A0000FFF788FD204600F023FE20684EF6FF7297
:102A1000416C1140416403B0BDE8F08F5BF8313088
:102A20009BB24BF831305BF8313043EA0E434BF840
:102A30003130928B1FFA8EF3614604F049FD206815
:102A400031780AF1300350F821201A4048F2B003DF
:102A50005A4040F8212000BF2068416C0904DAD5B3
:102A6000426C12F00F095DD050F829805FEA0841EE
:102A700040F1028250F8291009EB890201EA0A01AB
:102A800041F0800104EBC20540F8291095F860116F
:102A900005F5AA76002900F0CF8095F85711022994
:102AA00040F0F28031785FEA484200F151810A2219
:102AB0000292029AAAB100BF029A013A0292029AC5
:102AC0007AB1029A013A0292029A52B1029A013AFA
:102AD0000292029A2AB1029A013A0292029A002ABA
:102AE000EAD10BEBC10200235268C2F30947D5F8C3
:102AF0006C21D21B38BF1A46C5F86C2140F2748194
:102B00005FEA486200F17E8150F8212048F2C0035C
:102B100002EA0A021A4340F82120002F40F0738194
:102B200096E100BF0168D20622D401EA0A0141F40D
:102B300000410160207D5BF83000A16AC0F30940CC
:102B400020630844A06220460021FFF707FD607C57
:102B500000283FF481AFE06A00287FF47DAF607CFD
:102B6000216840F08000C8640020607474E700BFF2
:102B70000A0500F1BB8009047FF56EAF01680A22E7
:102B800001EA0A0141F08001016094F854110292B7
:102B9000029AA2B1029A013A0292029A7AB1029A78
:102BA000013A0292029A52B1029A013A0292029AB0
:102BB0002AB1029A013A0292029A002AEAD10BEB58
:102BC000C1014968C1F30943C4F8703193B1D4F825
:102BD000681179B1B4F85A2104F00CFCD4F86801FA
:102BE000D4F870110844C4F8680120460021FFF7AA
:102BF00027FD206801680A053FF52EAF01F440511A
:102C0000B1F5405F3FF428AFDBF8041021F07C41C0
:102C1000CBF80410D4F86411002900F09D823E29FD
:102C200000F29E8201F0010202EB5101DBF8042068
:102C300042EA8161A1E200BF31780A220292029A3F
:102C4000AAB100BF029A013A0292029A7AB1029A9C
:102C5000013A0292029A52B1029A013A0292029AFF
:102C60002AB1029A013A0292029A002AEAD10BEBA7
:102C7000C1014968C1F30947002F00F0E980D5F888
:102C80006811B5F85A21DEE0317848F2C00350F8F7
:102C9000212002EA0A021A4340F8212050F821209C
:102CA000520400F181800A220292029AAAB100BF66
:102CB000029A013A0292029A7AB1029A013A029277
:102CC000029A52B1029A013A0292029A2AB1029AE7
:102CD000013A0292029A002AEAD10BEBC10149683B
:102CE000C1F30947002F40F08E80B1E094F85411F1
:102CF0000A220292029AA2B1029A013A0292029A1E
:102D00007AB1029A013A0292029A52B1029A013AB7
:102D10000292029A2AB1029A013A0292029A002A77
:102D2000EAD10BEBC1014968B4F85A21C1F3094358
:102D30000199C4F8703104F05DFB2068016801EA74
:102D40000A0141F080010160204600F0ADFC83E6FD
:102D50000A220292029AA2B1029A013A0292029ABD
:102D60007AB1029A013A0292029A52B1029A013A57
:102D70000292029A2AB1029A013A0292029A002A17
:102D8000EAD15BF831200023C2F30947D5F86C2162
:102D9000D21B38BF1A46C5F86C2139D95FEA4862A0
:102DA00043D4002F4BD153E00A220292029AA2B1DF
:102DB000029A013A0292029A7AB1029A013A029276
:102DC000029A52B1029A013A0292029A2AB1029AE6
:102DD000013A0292029A002AEAD15BF83110C1F35B
:102DE000094767BB34E000BF50F821200AF5405383
:102DF0001A404AF280035A4040F821205FEA4862B4
:102E00007FF582AE27B3D5F86811B5F85E211AE0D8
:102E100050F821200AF540531A404AF280035A40E4
:102E200040F821205FEA4862BBD550F8212048F2E3
:102E3000C00302EA0A021A4340F8212047B1D5F83C
:102E40006811B5F85C213B4604F0D4FA01E000BFFC
:102E50000027D5E95A02D5F8701138443944C5F82D
:102E60007011C5F868011AB1D5F86401B84251D99A
:102E700031782046FFF7E4FB5FEA08607FF5ECADB0
:102E8000206809EB890150F8293004EBC10203EAFC
:102E90000A0141F4004140F82910D17D02F11406E5
:102EA00001291DD192F8200000284FF00000D062C7
:102EB00000F04C81507D5FEA486100F19980012863
:102EC00000F03081002840F0418130780BEBC000E9
:102ED000416821F07C414160416841F0004128E1B6
:102EE0005FEAC85120D4317800255BF83130D76AC9
:102EF000C3F30943FF1A38BF2F46D76240F2278138
:102F0000916A176B19449162F9181163314603F005
:102F10007DFDA1E52068314603F078FD5FEA086099
:102F20007FF59AADACE700BF31785FEA486371D4B2
:102F30000A230293029BA3B1029B013B0293029BD3
:102F40007BB1029B013B0293029B53B1029B013B6D
:102F50000293029B2BB1029B013B0293029B002B2D
:102F6000EAD10BEBC10E00255EF8043FC3F309471D
:102F7000D36ADB1B38BF2B46D36240F29B805FEAEB
:102F8000484308D450F821304CF2800503EA0A0384
:102F90002B4340F82130154615F8381F01297FF4DE
:102FA0004EAD134653F8348F53E904C153F8049CD3
:102FB000E045B944394443F80C1C43F8049C80F0C4
:102FC0002781B8F1000F00F063810027C4461F601D
:102FD0002F70537D012B40F02281DEF800309BB230
:102FE000CEF80030DEF8003043EA0C436FE100BF5A
:102FF000012800F0A180002840F0A88030785BF81C
:10300000301021F07C414BF830105BF8301041F06B
:10301000004199E00A230293029BA3B1029B013B6A
:103020000293029B7BB1029B013B0293029B53B133
:10303000029B013B0293029B2BB1029B013B02933B
:10304000029B002BEAD15BF83130D76AC3F3094306
:103050000025FF1A38BF2F46D76247D95FEA484795
:1030600008D550F821704CF2800507EA0A072F4373
:1030700040F82170154615F8387F012F7FF4DFAC3A
:10308000174657F834EF57E9049C57F8048CCE459F
:1030900098449C4447F80CCC47F8048C80F0D680C8
:1030A0004FF00008BEF1000F85F8008040F0D1809D
:1030B0009E46D0E0507D01286CD000287CD15BF882
:1030C000310020F07C404BF831005BF8310040F0DB
:1030D00000404BF83100DEF8000020F07C40CEF8D4
:1030E0000000DEF8000040F0004063E0507D012861
:1030F0006AD0002878D15BF831000BEBC10220F0D8
:103100007C404BF831005BF8310040F000404BF858
:103110003100506820F07C405060506840F0004022
:1031200061E000BF30780BEBC000416889B24160BC
:10313000416841600AE000BF30785BF8301089B226
:103140004BF830105BF830104BF8301031782046D7
:10315000FFF704FAFFF780BCDBF804100BE000BFB8
:103160004A09CB064FF0FF3308BF03EB5112DBF8DF
:10317000041041EA826141F00041CBF8041001687B
:103180000AF5405211404BF2800251400160FFF7B6
:1031900063BC00BF5BF8310080B24BF831005BF8D4
:1031A00031004BF83100DEF8000080B2CEF80000AC
:1031B000DEF80000CEF800002046FFF7CFF95FEA06
:1031C000484018D5FFF73BBC5BF831000BEBC10260
:1031D00080B24BF831005BF831004BF83100506899
:1031E00080B25060506850602046FFF7B7F95FEA40
:1031F00048407FF524AC206831784CF2800350F8C9
:10320000212002EA0A021A4340F82120FFF717BCE6
:10321000A8EB0C051D60537D012B3FF4DEAE002BA7
:1032200057D1DEF80030BCF1000F23F07C43CEF81C
:10323000003035D0BCF13E0F3AD80CF0010303EB5F
:103240005C03DEF8005045EA836340E0AEEB09081A
:10325000CE46C7F80080537D012B3FF4DFAB002B37
:103260007FF4E7AB5BF83130BEF1000F23F07C4315
:103270004BF8313018D0BEF13E0F2FD80EF00103BD
:1032800003EB5E035BF8315045EA8363FFF7CFBB86
:1032900000232B70BC46537D012BC0D19DE600BF9F
:1032A000DEF8003011E000BF5BF8313023E000BFF2
:1032B0005FEACC654FEA5C134FF0FF3508BF05EBC2
:1032C0005C13DEF8005045EA836343F00043CEF818
:1032D0000030D28B1FFA8CF3FFF7AFBB5FEACE65ED
:1032E0004FEA5E134FF0FF3508BF05EB5E135BF846
:1032F000315045EA836343F00043FFF798BB00BFBA
:1033000021684FF2FF72086C40F008000864486CB6
:1033100010404864086C40F0040220460A6403B080
:10332000BDE8F04F00F03ABA20684FF67F72416C6A
:103330001140416494F8CC1291B1204603B0BDE82D
:10334000F04F00F02BBA00BF21684FF6FF52486CD7
:10335000024020464A6403B0BDE8F04F00F084B953
:10336000016C41F004010164016C41F00801016449
:10337000012184F8CC12406D3C2101EA90022046E4
:103380000121C4F8D02203B0BDE8F04FFFF7C2B866
:10339000002804BF0120704770B582B0044690F841
:1033A000950228B9002084F89402204600F004F920
:1033B000032084F89502206803F0C4FA94F804E02E
:1033C000BEF1000F00F0E4800EF0030CBEF1040F1C
:1033D0004FF0000238D30EF0FC03A4F1A00003214B
:1033E000012500BFCE1E80F8B4608E1E80F8DC6020
:1033F0004E1E80F8046180F82C110E1D013180F8FA
:10340000B55080F8B720C0E93122C0F8CC2080F850
:10341000DD5080F8DF20C0E93B22C0F8F42080F8BE
:10342000055180F80721C0E94522C0F81C2180F829
:103430002D5180F82F21C0E94F22C0F84421A0303F
:1034400099423146CED1F21EBCF1000F29D002EBD9
:103450008200012104EBC0030020BCF1010F59756B
:103460001A75D875C3E90900D8621AD0531C03EB4A
:103470008305BCF1020F04EBC50569752B75E87572
:10348000C5E90900E8620CD0901C00EB8001012224
:1034900004EBC101087500204A75C875C1E909002F
:1034A000C862BEF1000F73D0BEF1040F4FF00002EE
:1034B00036D30EF0FC000321234600BFCE1E83F856
:1034C00054618E1E83F87C614E1E83F8CC110D1D55
:1034D000013183F8552183F85721C3E95922C3F8F4
:1034E0006C2183F87D2183F87F21C3E96322C3F82F
:1034F000942183F8A52183F8A46183F8A721C3E967
:103500006D22C3F8BC2183F8CD2183F8CF21C3E914
:103510007722C3F8E421A03381422946CED1EA1EA6
:10352000BCF1000F34D002EB8200BCF1010F04EBC0
:10353000C0014FF0000081F8550181F8542181F855
:103540005701C1E95900C1F86C0121D0511C01EBB0
:103550008103BCF1020F04EBC30383F8550183F828
:10356000541183F85701C3E95900C3F86C010FD017
:10357000901C00EB8001002204EBC10181F8552171
:1035800081F8540181F85721C1E95922C1F86C2111
:1035900094E80F00267C009603F0C4F90020012176
:1035A000607484F89512217B012903D12046FEF72F
:1035B0009FFF002002B070BD10B5C4B0044602A841
:1035C00008304FF48071FDF70AF8206846F20001D8
:1035D000C4F20101884201D044B010BD00F0EAF805
:1035E00010200390002002903020419002A800F0AB
:1035F0001BF9002818BFFDF7D7FA40F6A440C4F223
:1036000002400168002241F08071016000680021E1
:1036100000F08070019001984A20FEF72DFF4A20AB
:10362000FEF718FF44B010BDB0B540F2F054C2F23E
:1036300000042068406A002818BF05F0B9FA206825
:103640000125C0F8885104F0B7F820684562B0BD84
:1036500040F2F050C2F200000068D0F8AC1100292E
:1036600008BF7047F320084740F2F050C2F2000054
:103670000068D0F8AC11002908BF7047F020084757
:1036800010B5044690F89402012804BF022010BD32
:10369000012084F894026174206803F013FF002075
:1036A00084F8940210BD0000F0B581B040F2F051F2
:1036B000C2F2000109680546CC6905F52771676803
:1036C000082207F16C0005F097FFA26801217963D9
:1036D00022F00E01A16097F96C200020B2F1FF3FAB
:1036E000B86478651ADDA073384610F8722F12B9E5
:1036F00097F873206AB1BE6B06F05EF8B0F5807F74
:10370000786411D92046314603F0B0FF0020A1684B
:10371000207341F40070A06001B0F0BD41F48070EE
:10372000A06001B0F0BD00BF03460020FA6B317D00
:10373000B86428463A64FFF795F80220207301B078
:10374000F0BD000010B5044690F89402012804BFB3
:10375000022010BD2068012184F8941203F03CFE81
:10376000206803F0CFF8002084F8940210BD000018
:1037700010B5044690F89402012804BF022010BD41
:103780002068012184F8941203F0DCF8206803F02B
:10379000C1F8002084F8940210BD000040F2F050FF
:1037A000C2F200000068D0F8AC11002908BF7047D1
:1037B000F420084740F63800C4F20240016841F0A6
:1037C000007101607047000040F62400C4F202401E
:1037D000016841F0010101607047000040F674414A
:1037E000C4F202410A6842F080720A600A6822F05C
:1037F00080720A6090E80E1011431943026941EA91
:103800000C0141EA024146F20002C4F2000251609A
:103810001168406921F47C5141EA00201060106871
:1038200040F06000106070472DE9F04704460068E2
:1038300040F62848C101C4F2024807D5D8F8C010A4
:10384000A26D21F040411143C8F8C010C0070ED04E
:10385000E06D052822D8DFE800F003232B030303E3
:10386000D8F8B01021F007010843C8F8B0000026CE
:103870002078800702D4354645E000BF206E4FEA2D
:10388000F00005281ED83546DFE800F004222804A1
:10389000040400BF2F4645BB2CE000BF0126E7E72C
:1038A00004F1080002F080F906460028E0D106E0A5
:1038B00004F1300002F0EEF906460028D8D1E06DA0
:1038C000CEE700BF01250127207840071FD44EE036
:1038D00004F1080002F068F904E000BF04F13000D0
:1038E00002F0D8F905462F4625B1207840070ED4BE
:1038F0003DE000BFD8F8B000216E20F0380008434A
:103900000025C8F8B0003746207840072FD5606EF4
:103910004FEAB010052809D8DFE800F0040E1404BF
:10392000040400BF2E46A5B918E000BF01250126FA
:10393000207800071FD44EE004F1080002F034F9AB
:1039400004E000BF04F1300002F0A4F905462E4661
:1039500025B1207800070ED43DE000BFD8F8B000B4
:10396000616E20F4E07008430025C8F8B0003E46C0
:10397000207800072FD5A06E4FEA7020052809D8BF
:10398000DFE800F0040E1404040400BF2F46A5B9BC
:1039900018E000BF012501272078C0061FD44EE0A3
:1039A00004F1080002F000F904E000BF04F1300067
:1039B00002F070F905462F4625B12078C0060ED4D6
:1039C0003DE000BFD8F8B000A16E20F4606008436D
:1039D0000025C8F8B00037462078C0062FD5E06E25
:1039E0004FEA3030052809D8DFE800F0040E14044F
:1039F000040400BF2E46A5B918E000BF012501262A
:103A0000207880061FD44EE004F1080002F0CCF8C4
:103A100004E000BF04F1300002F03CF905462E46F8
:103A200025B1207880060ED43DE000BFD8F8B00064
:103A3000E16E20F4E04008430025C8F8B0003E469F
:103A4000207880062FD5206F4FEAF030052809D85E
:103A5000DFE800F0040E1404040400BF2F46A5B9EB
:103A600018E000BF01250127207840061FD44EE052
:103A700004F1080002F098F804E000BF04F13000FF
:103A800002F008F905462F4625B1207840060ED4ED
:103A90003DE000BFD8F8B000216F20F4603008434B
:103AA0000025C8F8B0003746207840062FD5606F53
:103AB0004FEAB040052809D8DFE800F0040E1404EE
:103AC000040400BF2E46A5B918E000BF0125012659
:103AD000207800061FD44EE004F1080002F064F8DC
:103AE00004E000BF04F1300002F0D4F805462E4691
:103AF00025B1207800060ED43DE000BFD8F8B00014
:103B0000616F20F4E01008430025C8F8B0003E467D
:103B1000207800062FD5A06F4FEA7050052809D8ED
:103B2000DFE800F0040E1404040400BF2F46A5B91A
:103B300018E000BF012501276078C0071FD14EE0C3
:103B400004F1080002F030F804E000BF04F1300096
:103B500002F0A0F805462F4625B16078C0070ED1C7
:103B60003DE000BFD8F8B000A16F20F4600008432A
:103B70000025C8F8B00037466078C0072FD0E06F46
:103B80004FEA3060052809D8DFE800F0040E14047D
:103B9000040400BF2E46A5B918E000BF0125012688
:103BA000607880071FD44FE004F1080001F0FCFFAB
:103BB00004E000BF04F1300002F06CF805462E4628
:103BC00025B1607880070ED43EE000BFD8F8B00081
:103BD000E16F20F0E06008430025C8F8B0003E46E1
:103BE0006078800730D5D4F880004FEAF06005286F
:103BF00008D8DFE800F0030D130303032F46A5B92F
:103C000018E000BF012501276078400720D44FE06D
:103C100004F1080001F0C8FF04E000BF04F1300027
:103C200002F038F805462F4625B1607840070FD4DA
:103C30003EE000BFD8F8B000D4F8801020F060500B
:103C400008430025C8F8B0003746607840072FD5F4
:103C5000D4F88400052809D8DFE800F0040E140425
:103C6000040400BF2E46A5B918E000BF01250126B7
:103C70006078000720D451E004F1080001F094FFBF
:103C800004E000BF04F1300002F004F805462E46BF
:103C900025B1607800070FD440E000BFD8F8B40029
:103CA000D4F8841020F0070008430025C8F8B400B9
:103CB0003E466078000731D5D4F888004FEA3010CE
:103CC000052809D8DFE800F0040E1404040400BF3E
:103CD0002F46A5B918E000BF012501276078C0066E
:103CE00020D451E004F1080001F05EFF04E000BFC1
:103CF00004F1300001F0CEFF05462F4625B1607873
:103D0000C0060FD440E000BFD8F8B400D4F8881043
:103D100020F0700008430025C8F8B40037466078EA
:103D2000C00631D5D4F88C004FEA3060052809D898
:103D3000DFE800F0040E1404040400BF2E46A5B909
:103D400018E000BF012501266078800620D43DE000
:103D500004F1080001F028FF04E000BF04F1300086
:103D600001F098FF05462E4625B1607880060FD4F5
:103D70002CE000BFD8F8B800D4F88C1020F0E06038
:103D800008430025C8F8B8003E46607880061DD577
:103D9000D4F890006FF0010101EB3041022909D302
:103DA0004FEA304030B1012834D104F1300001F045
:103DB00071FF05462F4655B9D8F8BC00D4F89010CD
:103DC00020F4403008430025C8F8BC00374660782E
:103DD000400624D5D4F894006FF0010101EBB04106
:103DE000022909D34FEAB04030B101283AD104F199
:103DF000300001F04FFF05462E468DB9D8F8BC00C3
:103E0000D4F8941020F4402008430025C8F8BC00E2
:103E100005E000BF0125012760784006DAD43E4660
:103E20006078000623D5D4F898006FF0010101EB0B
:103E30003051022909D34FEA305030B1012839D12D
:103E400004F1300001F026FF0546A94685B9D8F8EF
:103E5000BC00D4F8981020F4401008430025C8F89E
:103E6000BC0004E00125012660780006DBD4B146E1
:103E70006079400724D5D4F89C006FF0010101EB74
:103E8000B051022909D34FEAB05030B101283BD1DB
:103E900004F1300001F0FEFE05462F468DB9D8F83A
:103EA000BC00D4F89C1020F4400008430025C8F85A
:103EB000BC0005E001254FF0010960794007DAD424
:103EC0004F46A078C00724D0D4F8A000002818BF1F
:103ED000B0F1007F0CD12E46E5B9D8F8BC00D4F87B
:103EE000A01020F0407008430025C8F8BC0010E086
:103EF000B0F1807F34D104F1300001F0CBFE0546F3
:103F00002E463DB9E9E700BF01250127A078C0078B
:103F1000DAD13E46D4E9000140F61C49C4F2024918
:103F200009050CD5D9F8001021F40041C9F800109A
:103F3000D4F80011D9F800201143C9F8001080030B
:103F400034D5D4F8A4004FEA302005280CD8DFE897
:103F500000F00311170303032F46C5B91CE000BF8F
:103F600001250126D6E700BF01250127A0784007DB
:103F700020D451E004F1080001F016FE04E000BF77
:103F800004F1300001F086FE05462F4625B1A078E9
:103F900040070FD440E000BFD8F8B400D4F8A41014
:103FA00020F4E06008430025C8F8B4003746A07844
:103FB000400731D5D4F8A8004FEA3030052809D899
:103FC000DFE800F0040E1404040400BF2E46A5B977
:103FD00018E000BF012501262079800620D451E099
:103FE00004F1080001F0E0FD04E000BF04F130003E
:103FF00001F050FE05462E4625B1207980060FD4EB
:1040000040E000BFD8F8B400D4F8A81020F4E04095
:1040100008430025C8F8B4003E462079800631D513
:10402000D4F8AC004FEA3040052809D8DFE800F0AA
:10403000040E1404040400BF2F46A5B918E000BF05
:10404000012501272079400620D451E004F1080021
:1040500001F0AAFD04E000BF04F1300001F01AFEF7
:1040600005462F4625B1207940060FD440E000BF19
:10407000D8F8B400D4F8AC1020F4E02008430025B0
:10408000C8F8B40037462079400631D5D4F8B000DE
:104090004FEA3050052809D8DFE800F0040E140478
:1040A000040400BF2E46A5B918E000BF0125012673
:1040B0002079000620D451E004F1080001F074FDDD
:1040C00004E000BF04F1300001F0E4FD05462E4697
:1040D00025B1207900060FD440E000BFD8F8B40025
:1040E000D4F8B01020F4E00008430025C8F8B4006C
:1040F0003E462079000631D5D4F8B4004FEA30604E
:10410000052809D8DFE800F0040E1404040400BFF9
:104110002F46A5B918E000BF012501276079C00727
:1041200020D151E004F1080001F03EFD04E000BFA1
:1041300004F1300001F0AEFD05462F4625B160794F
:10414000C0070FD140E000BFD8F8B400D4F8B410D5
:1041500020F0E06008430025C8F8B40037466079D5
:10416000C00731D0D4F8B8004FEA3070052809D81C
:10417000DFE800F0040E1404040400BF2E46A5B9C5
:1041800018E000BF01250126A078000720D457E0E1
:1041900004F1080001F008FD04E000BF04F1300064
:1041A00001F078FD05462E4625B1A07800070FD412
:1041B00046E000BFD8F8B400D4F8B81020F0E040D2
:1041C00008430025C8F8B4003E46A078000737D55C
:1041D000D4F8C0004FEA304004280FD8DFE800F0E0
:1041E00004141A0A0A0000BFD8F8000040F4003096
:1041F000C8F800002F46A5B918E000BF0125012727
:10420000A078C00620D457E004F1080001F0CCFCEF
:1042100004E000BF04F1300001F03CFD05462F46EC
:1042200025B1A078C0060FD446E000BFD8F8C00082
:10423000D4F8C01020F4E02008430025C8F8C000DE
:104240003746A078C00637D5D4F8C4004FEAF0400E
:1042500004280FD8DFE800F004141A0A0A0000BF8F
:10426000D8F8000040F40030C8F800002E46A5B988
:1042700018E000BF01250126A078800620D447E081
:1042800004F1080001F090FC04E000BF04F13000EC
:1042900001F000FD05462E4625B1A07880060FD41A
:1042A00036E000BFD8F8C000D4F8C41020F4601085
:1042B00008430025C8F8C0003E46A078800627D5F0
:1042C000D4F8D000052809D802280FD02946ADB16E
:1042D000D4E90002920520D42FE000BF012501217E
:1042E000D4E90002920518D427E000BF04F10800C9
:1042F00001F05AFC0546002D2946E9D1D8F8C00046
:10430000D4F8D01020F0070008430025C8F8C000FA
:104310003146D4E9000292050FD5D4F8D42042F0FA
:104320000803082B0ED1AA4645B9D8F8C03000259D
:1043300023F008031A43C8F8C0208A46800106D437
:10434000504620E001254FF0010A8001F8D54FF6D4
:104350000847CFF6FF7759F8070040F0010049F809
:104360000700FDF7DBFF064659F80700C00707D135
:10437000FDF7D4FF801B0228F6D90325032002E0B5
:10438000002D284664D021684A011CD5D4F8C820E5
:104390006FF0010303EB3213022B0AD34FEA3213FF
:1043A0003BB1012B38D1D8F8003043F40033C8F8C2
:1043B00000302E4645B9D8F8C030002523F0300330
:1043C0001A43C8F8C0200646480229D5D4F8CC00C4
:1043D000402809D0D0B9D8F8000040F40030C8F81F
:1043E00000002F46A5B906E004F1080001F0DCFB4F
:1043F00005462F4665B9D8F8BC00D4F8CC1020F09B
:10440000400008430025C8F8BC0009E00125012749
:10441000E078000709D47FE0012501264802D5D4C1
:104420003746E078000740F17780D4F8DC000428B4
:1044300050D8DFE800F003555B090900D8F8000008
:1044400040F40030C8F80000002D2E4655D159E048
:10445000D8F8C80010F4407018D0D4F8F41088428E
:1044600011D0D8F8C800D8F8C81020F4407041F432
:104470008031C8F8C810D8F8C81021F48031C8F8C5
:10448000C810C8F8C800C00740F0FA81D4F8F4009A
:10449000D9F800104FF6CF7300F4407221F47C512C
:1044A000C0F2FF0303EA1013B2F5407F08BF1943BF
:1044B000C9F80010D8F8C8106FF31F3021F440710C
:1044C000C8F8C810D8F8C81000250843C8F8C800B4
:1044D00036E700BF01250126E078C00620D457E06A
:1044E00004F1080001F060FB04E000BF04F13000BB
:1044F00001F0D0FB05462E4625B1E078C0060FD46A
:1045000046E000BFD8F8B800D4F8DC1020F007006F
:1045100008430025C8F8B8003E46E078C00637D505
:10452000D4F8E0004FEAF00004280FD8DFE800F0EC
:1045300004141A0A0A0000BFD8F8000040F4003042
:10454000C8F800002F46A5B918E000BF01250127D3
:10455000E078800620D457E004F1080001F024FB45
:1045600004E000BF04F1300001F094FB05462F4643
:1045700025B1E07880060FD446E000BFD8F8B80037
:10458000D4F8E01020F0380008430025C8F8B8003F
:104590003746E078800637D5D4F8E4004FEAB0100B
:1045A00004280FD8DFE800F004141A0A0A0000BF3C
:1045B000D8F8000040F40030C8F800002E46A5B935
:1045C00018E000BF01250126E078400620D451E024
:1045D00004F1080001F0E8FA04E000BF04F1300043
:1045E00001F058FB05462E4625B1E07840060FD471
:1045F00040E000BFD8F8B800D4F8E41020F4E07030
:1046000008430025C8F8B8003E46E078400631D59A
:10461000D4F8E8004FEA7020052809D8DFE800F058
:10462000040E1404040400BF2F46A5B918E000BF0F
:1046300001250127E078000620D451E004F10800AC
:1046400001F0B2FA04E000BF04F1300001F022FBF7
:1046500005462F4625B1E07800060FD440E000BFA4
:10466000D8F8B800D4F8E81020F4606008430025BA
:10467000C8F8B8003746E078000631D5D4F8EC0029
:104680004FEA3030052809D8DFE800F0040E1404A2
:10469000040400BF2E46A5B918E000BF012501267D
:1046A0002079C00720D151E004F1080001F07CFA24
:1046B00004E000BF04F1300001F0ECFA05462E469C
:1046C00025B12079C0070FD140E000BFD8F8B8006D
:1046D000D4F8EC1020F4E04008430025C8F8B800F6
:1046E0003E462079C00731D0D4F8F0004FEAF030D0
:1046F000052809D8DFE800F0040E1404040400BF04
:104700002F46A5B918E000BF0125012720798007B1
:1047100020D43BE004F1080001F046FA04E000BFB9
:1047200004F1300001F0B6FA05462F4625B1207994
:1047300080070FD42AE000BFD8F8B800D4F8F010F2
:1047400020F4603008430025C8F8B80037462079C7
:1047500080071BD5D4F8D800032800F28380DFE857
:1047600000F00903850900BFD8F8000040F40030CC
:10477000C8F800002E4655B9D8F8BC00D4F8D810B7
:1047800020F0030008430025C8F8BC003E4620790D
:10479000400722D5D4F8BC0058B1B0F5007F0BD04B
:1047A000B0F5807F32D1D8F8000040F40030C8F86E
:1047B00000002F4695B906E004F1080001F0F4F975
:1047C00005462F4655B9D8F8C000D4F8BC1020F4DF
:1047D000407008430025C8F8C00037462079C0065D
:1047E0002AD5D4F8FC00302809D0202814D010286D
:1047F00032D1D8F8000040F40030C8F8000095B17C
:10480000207900071CD42846BDE8F0870127012540
:104810002079C006E5D40FE004F1300001F03AFA47
:104820000546002DECD1D8F8BC00D4F8FC1020F0DF
:1048300030000843C8F8BC003D4620790007E2D5A7
:10484000D8F8C000D4F8F81020F0C0000843C8F829
:10485000C0002846BDE8F087012520790007D2D5A1
:10486000EEE700BF0126012591E700BF04F1080033
:1048700001F09AF90546002D2E467FF488AF7BE7BC
:10488000FDF74CFD064641F288370325D8F8C800ED
:1048900080073FF5FBADFDF741FD801BB8424FF0AF
:1048A0000300F3D96FE500002DE9F04381B0002843
:1048B00000F0CD8042F20008C4F202080446D8F8A5
:1048C00000000D4600F00F0088420DD2D8F800001D
:1048D00020F00F002843C8F80000D8F8000000F0CE
:1048E0000F00A84240F0B380206840F62047C10680
:1048F000C4F202470CD561693A68702303EA1222B8
:10490000914205D93A6822F4E04242EA0121396035
:1049100001070CD521693A68702303EA121291420B
:1049200005D93A6822F4E06242EA01113960410790
:104930000AD5E1683A6802F07002914204D93A68F7
:1049400022F070021143396081070AD5A1683A68E4
:1049500002F00F02914204D93A6822F00F0211438B
:104960003960C00768D1206881070AD5A1683A6814
:1049700002F00F02914204D23A6822F00F02114372
:104980003960D8F8001001F00F01A9420CD9D8F80D
:10499000001021F00F012943C8F80010D8F80010CA
:1049A00001F00F01A94252D141070AD5E1683A68E6
:1049B00002F07002914204D23A6822F07002114370
:1049C000396001070CD521693A68702303EA121295
:1049D000914205D23A6822F4E06242EA011139605C
:1049E000C0060CD560693968702202EA112188423C
:1049F00005D2396821F4E04141EA0020386000F036
:104A00008BF8396849F6613201F00F01C0F60002F7
:104A1000525C40F20401C2F20001096840F208034E
:104A200020FA02F2C2F2000308461A6001B0BDE8A3
:104A3000F043FDF7B7BC00BF606801280CD0022826
:104A40005ED0032862D157F8201C890108D40120C8
:104A500001B0BDE8F08300BF57F8201C8905F6D5EA
:104A600057F8041C21F00301084347F8040CFDF734
:104A700055FC61680646032941F288392BD002298A
:104A800037D0012910D100BF57F8040C00F01800EE
:104A900008283FF468AFFDF741FC801B48454FF004
:104AA0000300F1D90DE000BF57F8040C10F0180F07
:104AB0003FF459AFFDF732FC801B48454FF003002F
:104AC000F2D901B0BDE8F083FDF728FC801B484512
:104AD0004FF00300F5D857F8040C00F01800182820
:104AE000F2D140E7FDF71AFC801B48454FF0030068
:104AF000E7D857F8040C00F018001028F2D132E77C
:104B000057F8201C8903A2D5AAE700BF57F8201C3C
:104B100089079CD5A4E7000080B540F60041C4F2A7
:104B20000241C86900F01800082802BF40F60010D2
:104B3000C0F23D0080BDC86910F0180F34D0C869BC
:104B400000F01800102802BF41F20020C0F27A00E5
:104B500080BDC86900F01800182849F20000C0F2B2
:104B6000D03066D1D1F828E08A6AC2F3052C8A6A6F
:104B70008B6BBCF1000F04BF002080BDDB08D206A8
:104B800003EAE2726FF35F3200EE102A0EF00302C6
:104B9000B8EE400A032A15D0012A17D10A689206F6
:104BA00018D49FED251A1DE00868800649F2000020
:104BB000C0F2D03058BF80BD0968C1F3C101C84000
:104BC00080BD00BF9FED1B1A0CE000BF9FED1B1ABC
:104BD00008E000BF0A68C2F3C102D04001EE100A2B
:104BE000B8EE411A02EE10CA486BB8EE422A6FF3D3
:104BF0005F2081EE021A02EE100A9FED113AB8EE24
:104C0000422A20EE030A486B30EE020AB7EE002A71
:104C1000C0F3462030EE020A013021EE000A01EE18
:104C2000100AB8EE411A80EE010ABCEEC00A10EE7E
:104C3000100A80BD0024F44A0024744C0024744AF5
:104C400000000039002804BF012070472DE9F0431F
:104C500081B040F6004740F6F0490446C4F20247EE
:104C6000C4F20249F86959F8C81C227800F0180803
:104C7000D00601F003062AD5B8F1080F1CD0B8F110
:104C8000180F08BF022E17D0E1693868002900F01C
:104C9000698140F480703860FDF740FB054600BF35
:104CA000386880050CD4FDF739FB401B02284FF013
:104CB0000300F5D960E200BFE069002800F0E2805F
:104CC000B869216A20F47C1040EA0140B86120787C
:104CD000C00717D0B8F1100F10D0B8F1180F08BFE7
:104CE000032E0BD06068B0F5A02F5FDA002800F02B
:104CF000A381B0F5803F00F0C381C5E16068002862
:104D000000F0C0802078800777D5B8F1000F21D05F
:104D1000E068B8F1180F08BF012E55D03968002897
:104D200000F06681206921F0180108433860386876
:104D300040F001003860FDF7F1FA05463868800759
:104D400054D4FDF7EBFA401B02284FF00300F5D9CD
:104D500012E200BFE068002800F094803968206902
:104D600001F01801814231D0396821F0180108435F
:104D70003860FFF7D1FE396A49F6613201F00F0160
:104D8000C0F60002515C40F2080201F01F0120FA57
:104D900001F140F20400C2F200000068C2F2000219
:104DA0001160FDF7FFFA00286CD10FE000F0608180
:104DB000B0F5A81F40F06881386840F48020386062
:104DC000386840F480105AE100285BD0FDF7A6FA5D
:104DD000054600BF3868800708D4FDF79FFA401BDE
:104DE0000228F7D9032001B0BDE8F0833869616972
:104DF00020F4FE0040EA014038612078000745D4E5
:104E0000207840075CD42078800600F17D80A56A78
:104E1000A5B3B8F1180F40F0C98059F8C81C59F86B
:104E2000BC0C012D2ED0E26A01F00303934229D17C
:104E3000C1F30521226B914224D1626B01466FF3CD
:104E40005F21013A91421DD1A16BC0F34622013985
:104E50008A4217D1E16BC0F3064201398A4211D16F
:104E6000216CC0F30660013988420BD159F8B80CA7
:104E7000E16CC0F3CC00884240F0F281002001B028
:104E8000BDE8F083012001B0BDE8F083A169D9F845
:104E90000000002950D040F08060C9F80000FDF704
:104EA0003DFA0546D9F800000001A9D4FDF736FA0D
:104EB000401B0228F6D9032001B0BDE8F08300BFF3
:104EC0004FF62446CFF6FF76B859C00712D1B8592D
:104ED00040F00100B851FDF721FA0546B859C00766
:104EE00008D1FDF71BFA401B02284FF00300F5D94B
:104EF00042E100BFA068042846DC002800F0E08002
:104F0000012800F00F8113E1616A3868002900F080
:104F1000818040F480503860FDF700FA054600BFFC
:104F2000386880043FF573AFFDF7F8F9401B02289D
:104F30004FF00300F4D91FE120F08060C9F80000B1
:104F4000FDF7ECF9054600BFD9F8000000017FF538
:104F500057AFFDF7E3F9401B02284FF00300F3D9E8
:104F60000AE100BF20F480703860FDF7D7F90546EC
:104F7000386880057FF5ABAEFDF7D0F9401B0228FD
:104F80004FF00300F4D9F7E0052800F0BF80852832
:104F900040F0CE80D9F8000040F00400C9F80000CD
:104FA000D9F8000040F08000BAE000BF386820F077
:104FB00080703860FDF7B2F9022D05460CD100BFB4
:104FC0003868800140F1DC80FDF7A8F9401B022819
:104FD0004FF00300F4D9CFE03868800140F132810E
:104FE000FDF79CF9401B02284FF00300F4D9C3E001
:104FF00021F001003860FDF791F905463868800717
:105000007FF5FBAEFDF78AF9401B02284FF0030045
:10501000F4D9B1E020F480503860FDF77FF90546FF
:10502000386880047FF5F3AEFDF778F9401B02285D
:105030004FF00300F4D99FE0386820F480303860E6
:10504000386820F480103860386820F48020386098
:10505000FDF764F9054600BF386880037FF552AE5E
:10506000FDF75CF9401B64284FF00300F4D983E09E
:10507000386840F480203860386820F48010386048
:10508000386840F480300AE0386820F480303860B6
:10509000386820F480203860386820F48010386048
:1050A000FDF73CF9054600BF386880033FF52AAE9E
:1050B000FDF734F9401B64284FF00300F4D95BE09E
:1050C000D9F8000020F00100C9F80000D9F800006C
:1050D00020F08000C9F80000D9F8000020F004009A
:1050E000C9F80000FDF71AF9054641F2883600BFFD
:1050F000D9F8000080077FF586AEFDF70FF9401B59
:10510000B0424FF00300F3D936E000BFD9F80000F9
:1051100040F00400C9F80000D9F8000020F0800039
:10512000C9F80000D9F8000040F0010010E000BF0D
:10513000D9F8000020F00100C9F80000D9F80000FB
:1051400020F00400C9F80000D9F8000020F0800029
:10515000C9F80000FDF7E2F8054641F2883600BFC5
:10516000D9F8000080073FF54EAEFDF7D7F8401B99
:10517000B0424FF00300F3D901B0BDE8F08300BFA7
:1051800059F8C80C43F6037104F12C0388430ECB85
:10519000084340EA0220A16B49F8C80C4FF47E4254
:1051A00002EB4121E26B581E4FF4FE0389B203EB80
:1051B00002426FF35F20084402F4FE01226C4FF0BC
:1051C000FE4303EB0262084402F0FE41084449F842
:1051D000BC0C59F8C80C20F0100049F8C80CE06C61
:1051E000C00049F8B80C59F8C80C40F0100049F854
:1051F000C80C59F8C80C616C20F00C00084349F841
:10520000C80C59F8C80CA16C20F02000084349F8DC
:10521000C80C59F8C80C40F4803049F8C80C3868FC
:1052200040F080703860FDF779F8044638688001F6
:105230003FF524AEFDF772F8001B02284FF0030083
:10524000F4D999E759F8C80C4FF6FC71CFF6F8710C
:10525000084049F8C80C002001B0BDE8F08300BF49
:1052600059F8C80C20F0100049F8C80CFDF756F8A2
:105270000546FDF753F8A842FBD0E06CC00049F8A2
:10528000B80C59F8C80C40F0100049F8C80C0020C0
:1052900001B0BDE8F083000091E80510CB68104331
:1052A00047F61C02C4F200421060886943EA0C020F
:1052B000104347F62042C4F2004250601068D1E922
:1052C000043120F0FF10184340EA01410020116032
:1052D0007047000010B547F60400C4F200400068B3
:1052E000C0F3042EC0F342344FEA104300F03F0CE9
:1052F000CB7081F801E081F802C00C7012B100207F
:1053000010BD00BFDAB2120902EB820203F00F03F4
:1053100003EB4202030ACA704FEA1E1242EA8202FB
:1053200003F00F0303EB42024FEA1C1343EA83032B
:1053300000F00F0000EB43004A708870002010BDA1
:1053400010B547F60000C4F2004083684B60C368A4
:1053500003F44073B3F5807F13D003696FF3DF3339
:105360008B600068C0F30543C0F3062EC0F3805481
:1053700000F07F0C0B7081F801E081F802C0CC7066
:1053800012B1002010BD00BF1B09020C43EA8303C9
:1053900002F00F0202EB4302030A0A704FEA1E12E8
:1053A00002EB820203F00F0303EB42024FEA1C13ED
:1053B00003EB830300F00F0000EB43004A7088709A
:1053C000002010BD002804BF0120704770B50446BE
:1053D00090F82D0028B9002084F82C00204600F019
:1053E00063F8022047F60C06C4F2004684F82D004C
:1053F0003068C00652D4CA20B0615320B061306812
:1054000040061DD4306840F080003060FCF786FF15
:105410003168490614D40546FCF780FF411B30680B
:10542000B1F57A7F02D84006F6D509E0400607D4E8
:10543000032084F82D003168FF21B16170BD00BFE9
:10544000F0684FF6BF71CFF68F310840F060231D32
:1054500022690BCB43EA01411043A269F56810436E
:105460002843F06071603068D4E9091220F4F850E4
:10547000084310433060204600F082FC10B1FF2149
:10548000B16170BDF068D4E9071220F06040636933
:10549000104308431843F060FF20B061012084F8F6
:1054A0002D00002070BD0000B0B5C4B0044602A8B5
:1054B00008304FF480714FF48075FBF790F8206846
:1054C00047F60001C4F20041884201D044B0B0BDAB
:1054D000002003904FF00070029002A83F95FEF765
:1054E000A3F9002818BFFBF75FFB40F6A840C4F201
:1054F0000240816C41F400418164016841F4001173
:105500000160006800F400100190019844B0B0BD43
:105510002DE9F04381B0044690F82C0001284FF0AB
:10552000020000F09480012384F82C3084F82D00D0
:1055300032B14878CA7800028E7840EA024843E0E7
:1055400048784FF0CD0CC20642BF00F0EF000A30A1
:105550004870CA784FF0010EA2F10A03DFB207FBD0
:105560000CF7D5B2FE0A06EB8606092DA0F10A0556
:10557000A3EB46030EEBD72688BF43EA0612EFB231
:1055800007FB0CF78E78FB0A03EB83030928A5EBD6
:1055900043030EEBD72588BF43EA0510A6F10A03A3
:1055A000DDB2C0B205FB0CF7D2B2000240EA0248FD
:1055B000F80A00EB8000F2B2A3EB40000EEBD72319
:1055C000092A88BF40EA031647F60C07C4F20047D1
:1055D000CA2091F80090B8615320B861386840063D
:1055E0001ED4386840F080003860FCF797FE3968B8
:1055F000490615D4054600BFFCF790FE411B3868EC
:10560000B1F57A7F02D84006F6D509E0400607D406
:10561000032084F82D003968FF21B96114E000BF30
:10562000F0B240EA08004FEA493120F0C0000843D8
:1056300047F8080C204600F0A3FBFF21B96118B918
:10564000012084F82D000020002184F82C1001B0E6
:10565000BDE8F0832DE9F047044690F82C000128BE
:105660004FF0020008BFBDE8F0870D46012147F664
:105670000C0684F82C1084F82D00C4F20046CA20D1
:10568000B0615320B06130689046400622D4306843
:1056900040F080003060FCF741FE3168490619D4C3
:1056A000074600BFFCF73AFEC11B3068B1F57A7FB0
:1056B00002D84006F6D50DE040060BD4032084F84E
:1056C0002D003168FF21B161002184F82C10BDE864
:1056D000F08700BF306800F44070B0F5807F72D072
:1056E000F068B8F1000F07D040060DD44FF0000E5F
:1056F00085F803E00BE000BF40060FD44FF0000E2A
:1057000085F803E00DE000BFE8784FEA805E6A7834
:1057100028781202A97842EA004245E0E8784FEA88
:10572000805E2B784FF0CD0CA3F10A02D1B201FBC1
:105730000CF06F78A978C50A05EB85054FF00109D3
:10574000A2EB450AA7F10A05EAB202FB0CF25FFAE6
:1057500083F809EBD020B8F1090F88BF4AEA00139B
:10576000D00A00EB80005FFA87F8A5EB400009EB58
:10577000D222B8F1090F88BF40EA0217D8B2A1F1CE
:105780000A03DDB2FAB205FB0CF7120242EA00424C
:10579000F80A00EB8000CDB2A3EB400009EBD72361
:1057A000092D88BF40EA0311C8B2104347F67F7144
:1057B00040EA0E00C0F27F01084046F80C0CF06889
:1057C00020F48020F060204600F0DAFAFF21002863
:1057D000B1617FF479AF012084F82D000020002111
:1057E00084F82C10BDE8F087042888BF7047DFE8F4
:1057F00000F003131B352D004EF21000CEF2000016
:10580000016821F00401016040F6E440C4F2024066
:10581000016821F00C0120E04EF21000CEF20000F1
:105820000168012206E000BF4EF21000CEF2000037
:105830000168022221F00401016040F6E440C4F254
:105840000240016862F3830107E000BF4EF21000DE
:10585000CEF20000016841F00401016070470000D1
:10586000411E0020B0EB116F1CBF012070474EF2AB
:105870001002CEF2000251609060116841F0030105
:10588000116070474EF21000CEF200000068400731
:1058900044BF0420704740F6E440C4F20240006870
:1058A00000F00C01081FB0FA80F04009082908BF79
:1058B00002207047FEE70000B0B588B040F2F85013
:1058C00048F20012C2F200004FF40021C4F202229A
:1058D000C0E900214FF480710024042501830121D7
:1058E000CDE90644CDE90444CDE90244CDE90044C4
:1058F000C0E90244C0E90445C16180F8204080F855
:105900003410C0E90A440463846380F83C40FBF728
:10591000A3FB002818BFFBF747F90020C4F2293089
:1059200000900620CDE901007F20CDE9030540F27B
:10593000F850C2F2000069460594FBF7A7F9002869
:1059400018BFFBF731F908B0B0BD000080B582B0D8
:1059500040F68840C4F202400168002241F0010193
:1059600001600068012100F00100019001981B20F6
:10597000FCF782FD1B2002B0BDE88040FCF76ABD49
:1059800083B040F68C40C4F20240016841F004014B
:105990000160016801F0040102910299016841F07F
:1059A00080010160016801F08001019101990168A5
:1059B00041F001010160006800F0010000900098D2
:1059C00003B0704780B5FCF7AFFC002808BF80BD6E
:1059D000BDE88040FBF7E8B810B58EB040F6B810CF
:1059E00047F600030024C2F20000C4F200437F2106
:1059F0004FF0804CC0E9003400F10803CDE90C44BD
:105A0000CDE90A44CDE90844CDE90544CDE9034494
:105A1000CDE90144FF2216C3C0E90544C0E907C42B
:105A20004462FFF7CFFC002818BFFBF7BDF840F633
:105A3000B810C2F2000007A90794CDE90A440C94FB
:105A4000FFF72AFC002818BFFBF7AEF80020ADF8DE
:105A500008008DF80A00CDE9050040F6B810C2F242
:105A6000000002A90022FFF7F5FD002818BFFBF790
:105A70009BF840F20170C1F60100019040F6B810A9
:105A8000C2F2000001A90022FFF742FD002818BF62
:105A9000FBF78AF80EB010BDF0B589B040F6EC10F7
:105AA000C2F200004FF4C0510022002303F086FC34
:105AB00010BB08A9012000F095FC074607A90020AB
:105AC00000F090FC054606A800F0F2FC064605A88A
:105AD00000F0DEFCDDE90542DDE9073102903846E1
